:10000000009000202D8A02006F9102006F91020083
:100010006F9102006F9102006F9102006F910200D8
:100020006F9102006F9102006F910200BB9B020072
:100030006F9102006F91020001110200B96202008B
:100040006F9102006F9102006F9102006F910200A8
:100050006F9102006F9102006F9102006F91020098
:100060006F9102006F9102006F9102006F91020088
:100070006F9102006F9102006F9102006F91020078
:0C0080006F9102006F9102006F9102006E
:10009000F0B591B00791044606463036011D0125A2
:1000A000069250040E9408910995019607D4088889
:1000B00089780904401800260496039669E125F022
:1000C0002BFE039029F0CCF83078304C4C21605452
:1000D0002A4625464C35014611408207D20F511859
:1000E0004007C00F0F1820341421204628F022FFAB
:1000F000277500266675A675E6750E9C2448254969
:100100000160254825490860254FB88D1F49C881E1
:1001100024F0EBFEB8862148868010200F901B4902
:100120000F464871EE70AE80608825F0B5F903285F
:100130003DD124F081FB388100267E61A06B103018
:1001400025F09EFE26F0B6FA7881A16B088B134F3E
:10015000F883488B3884888B78842420085C800757
:10016000C00F388388680327002867D0827B121865
:10017000D37B0F221A40072A14D8C0467A4412793A
:10018000520097442B190F0F0F0F3239686100206E
:1001900040140840D6BE898E005555553C20094074
:1001A000062009404D200026F34A165422E001465D
:1001B0000496089D0746DDE008462430CA8BEF4BC5
:1001C0001A860A8C5A86498C9986007809990840C3
:1001D00098834D20E84A115405260BE04D200999DB
:1001E000E54A11540326374604E04D200999E24AB6
:1001F00011540226089D23E000266E700999E970CB
:10020000817B0918497C890617D000210E460FF022
:100210001DF93520D84A105C0028089D10D0608850
:10022000032738401146213189780904490D884255
:1002300006D050200999115402E08427089DCE4A27
:100240000D964F26905D00280BD0104600233832C3
:100250008363C363137253819381A06B08300121C0
:1002600004E0A06B08300221002213460EF058FE75
:10027000002100282DD00C96109102220D9E3146AF
:100280000B9211404A424A41431E581E8341134378
:100290000493012B21D1D64806800022B74E7281EB
:1002A000A36B2525585D03240440F482585D400863
:1002B00004263040CF4C2085585DC006C00F6085B5
:1002C00000290A960CD10020C94988810E9CAA4EAB
:1002D0001BE0832704910E464CE08327A64E33E0B3
:1002E000586825331B78D90707D1C3495A073340CB
:1002F000D41721405A00204001E0C049491C0E9CFF
:100300009D4EBB4B29F0D6F9B9490D98C00703D1D2
:1003100000200882089D17E0A26B1068525D9307C9
:100320000AD4B54D0A9B13405207D1170D405A000D
:100330002B460840AE4902E0B04A531C0022089DFB
:100340000B82A23122F05BFF0C98305C002810D0A9
:10035000A06B083025F028FD002801D1842171719F
:100360000B990172B16B884201D10020B0630F9EDE
:1003700000E0109E2888A978090440183902FF225D
:1003800012029043401828800F2F01D902210E43FA
:10039000099DFF210902014003200D9000028142C6
:1003A00061D1A8040590964B29020846B030079AFF
:1003B000024202915BD0104608400B90069D2846F1
:1003C00018400A906C4F8F48C06A04285BD310967F
:1003D00000200C9023F034FD80B2441D21460D987E
:1003E000814378690F9120F0DDFB064678698642EB
:1003F00004D008201099014310917E61002E3AD05C
:10040000A108F0893518103528461DF0A3FC0B987B
:100410000028594F16D04F20385C002812D0686849
:100420000F21090401400D98000481420AD1284699
:1004300024F0C8FAC00602D535200C993954512051
:1004400009993954F0893118FA79CA740F9940180A
:10045000F0810420109E06430E9CA06B103025F006
:100460000FFD0A9DAFE7B00700D529E12EE11096F8
:10047000069E354611E085203F4F78716248099904
:1004800001600E9C109E1096B879002804D0E06B95
:100490005E49C96821F01EF9069E05980640680667
:1004A0002946C50F0F4608460299084003D0324935
:1004B0004E2201238B54B30C10990D430799C907A1
:1004C00012D0059939400FD14A490988042920D111
:1004D0002A48406D28498A69801A60634020487123
:1004E000032000BF00BF4FE00798000401D4049927
:1004F00057E021484079102803D13E48008822F077
:1005000099FE28F025FB424A28F0A0F9002319465D
:1005100047E0BA0529D41093CB1F5A425A41164CD2
:100520004E23E35C5E1EB341002829D11A4327D134
:10053000022903D13520205C002825D10120049018
:100540004C20205C002800D1AEE12E48052101603E
:10055000A07900280E9C04D0E06B2C49C96821F0DA
:10056000B9F824F053F90023C1E7032018F06EFE18
:100570000149487108E0C046686100203C200940FC
:10058000022018F063FE60712248407928F0E0FAFA
:100590001F4A28F05BF9032000BF00BF0023194663
:1005A0000E9CF803109307D5A06B10300E4625F073
:1005B00067FC3146124807402646313600295CD098
:1005C0000F95144A4C200C901056002828D47578AA
:1005D000052D00D9002507210840801E052829D8AF
:1005E0007844007940008744191723211D27C0460D
:1005F00096200940062009400A8000000A80FFFF7B
:10060000FFFFFEFFA011084030100840E067002007
:10061000FF00FF0068610020E8070BD026250DE0F1
:1006200005460BE001200540263507E0E80701D02C
:10063000272503E0252501E06D0825352020105CE5
:10064000918922F023FB0A90E8B20B901BF01EFA6E
:10065000002803D029F03AF800283AD0089A28F068
:100660008FFDEE4908404121490201431180000CF1
:10067000907002200F9D05430E9C1098002815D005
:10068000FC482127C15D3F20084010901BF0FEF977
:10069000002803D029F01AF8002830D0089A28F052
:1006A0006FFDF34927F047FF05430E9CA80701D4CF
:1006B0002E460BE0E06BF049C96821F00BF82E469E
:1006C00024F0A4F827F082FD26F0EAFD304611B0B0
:1006D000F0BD09988003079001212046069106F09D
:1006E0005FFD23F065FB079807422DD1B078002805
:1006F00000D19FE0E14827F0EDF904464BE02046A9
:10070000099906F04DFD23F053FB0E98806B81682C
:100710000020002953D00B910C900F955026D54CFA
:10072000A55D2020205CA18922F0B0FA0146002DB1
:1007300057D002984118E0310A91CF48008D24F03B
:10074000ABFE0020A0554DE00E9803991DF080FBF4
:1007500004460F2838D84F20C64A105C00280AD01B
:100760003520105C002806D00C9828F093FB002858
:1007700001D17D20C4430E98C06BBF4FF9681EF0B5
:1007800007F9BC4A90714E2000211154387F800730
:1007900001D027F0BBFD089FE0B21028069B14D2C1
:1007A000B749002088836CB20B99402901D24020C0
:1007B0002843B04AB34F002C5AD405465AE00A9059
:1007C0000E9CAC4B0646FDE0089F3888B9780904BA
:1007D00040182102A64A104001433980000CB8702D
:1007E00047E70A910F9D0B98817B0A18D17B0F2652
:1007F0003140072914D1547C002529460EF026FEED
:10080000A009022800D1C4E00795012800D1AFE07B
:1008100000280F9D974B00D0CDE04D200799CEE0EA
:10082000089A28F0ADFC924927F085FE05430E9CFE
:10083000904BC6E04F208F49085C0028089F67D086
:100840003520085C002863D00A9828F0D3FC601A91
:1008500080009721C9004018703027F03BF904460A
:100860000C98844A28F016FB002895D18224ACE726
:100870007F200540E8B278861079002804D0280649
:1008800081494140814801604D20105C00283AD0E8
:10089000154624F0DDFEAA79B88D7D49002A0F9D0A
:1008A0003AD0803108463AE03520205C002800D15B
:1008B0006AE62120205C2646213671780902081854
:1008C000B1780904401873490140802900D05BE6E3
:1008D00071480721016023F099FF5020215C00201E
:1008E000002900D1F4E1B1780904490D0E9C628819
:1008F000042313400B4360490B850121C9030D43B9
:100900000146109B4DE6D803401C0F9D1F4607E093
:1009100028F06DF904463FE78007800E4840069FA7
:1009200028F014F8F148C78327F038FF022000BFF1
:1009300000BFF14805210160002C14D40B98253824
:100940008740E74A0C99505CB8435054B17800296D
:100950000E9C00D191E6002800D08EE60198007828
:100960000C99505489E60020DD490C9A885483E69E
:100970003520DB4B185C00280F9D00D133E14D2062
:1009800007991954089A28F0FBFBDC4927F056FF19
:100990000FE03520D24B185C002800D139E14D2002
:1009A00000211954089A28F0EBFBD44927F046FFA0
:1009B0000F9D054304E04D20079919543520195423
:1009C0000E9C0C9EA06B08301A463832012133462B
:1009D0000EF0A6FA074633463246002F0CD0781E9A
:1009E000414241410E4207D10B92411E88410122F2
:1009F00019465140014313D12846089B19889A781B
:100A000012048918BD4A1140832212020A431A8037
:100A1000090C99700225054348E6C046FF00FF0017
:100A2000079309920C960F959720AD4EC5000A9832
:100A30004019703028F0DEFB601A84005120305CD1
:100A400000282BD00A9535464C35E879B1890591B7
:100A500022F01CF906900C20059922F017F90A994A
:100A60006118069A89180C180020687117E0C046B2
:100A7000FF00FF0068610020E0670020881300008D
:100A80009620094006200940D6BE898E40140840B1
:100A90003181000080FF1F00A0110840083420466B
:100AA00027F018F804463520305C00280ED02020AE
:100AB000305CB18922F0EAF84C21715C4C36327915
:100AC00010F0DEF8002801D17D20C4430A940B9871
:100AD0008649824D08808048042444810E99896BA0
:100AE00025268A5D0D9B1A40C282885D4008204001
:100AF0002885885DC006C00F68854820784A105C4C
:100B00006A8DA2438000104368850C9800280CD0A1
:100B1000486825310A78D1070BD17549530722401F
:100B2000DB1719401840520006E000206F4B9881F7
:100B300006E07049491C00226C4B28F0BBFD6B4B52
:100B4000079800280DD00E98816B08688A5D910780
:100B50000ED4674914405207D2171140104062006A
:100B600009E0002018825E4E1099099A0A9C0CE058
:100B70006049491C00225A4E0A9C19821946A2312A
:100B800022F03DFB594B1099099AE0B210280ED380
:100B9000089A10889178090440182102574B184090
:100BA00001431180000C907002200F9D7CE5002411
:100BB0009C834031494841863079002804D008069A
:100BC00049494140474801604D20305C002858D0D9
:100BD00024F03EFDB2794148808D4949002A53D026
:100BE0008031084653E04D20012119540B980068CC
:100BF00000286AD00E9CA06B08300F461A46383287
:100C00000221079E33460EF08BF93A460746099BB0
:100C1000E3E64D20012119540B980468002C0F9D28
:100C200053D0A07B0019C17B314007290CD1407CF7
:100C30003F2809D80B99887B0818007C0B30FC21D1
:100C4000014020460EF002FC0E98806B0830244ACA
:100C50003832022726460024394623460EF060F932
:100C60003A4623460746B07B3018007C1C494C317D
:100C700088710B9CA07B20180E9C007CC871099E7B
:100C8000ABE6D003401C02E08007800E48400F9D79
:100C900027F05CFE27F082FD14480999C1831648AD
:100CA000052101600E98806B083025F07DF8002842
:100CB00001D18421717102210172B16B884200D18E
:100CC000B4637F1EEED11020EEE428460E9C94E61D
:100CD000049B014664E4C0463C20094006200940CC
:100CE0006861002040140840D6BE898E96200940D5
:100CF0000A8000000A80FFFF30100840FF00FF005C
:100D000031810000F0B597B00F4605464C1C0E78B7
:100D10003046214626F042FB002806D030462946C0
:100D2000224628F049FE17B0F0BD12940F972320F9
:100D3000C000281811902A2E2946324600D97AE29E
:100D4000DD20400008180E906720800008180D90E4
:100D5000572080000B18FF200630081810900E4610
:100D6000F03608468C300C9008468A300B900D46C1
:100D700077350F4676370C4667349000139102A101
:100D8000085813998746C04675100000ED10000002
:100D900011100000A11100003712000037120000EE
:100DA000B9110000171000001F1100004D110000C4
:100DB00015120000BF110000770F0000371200006D
:100DC000371200005710000037120000E90F000032
:100DD000670F00009B110000510E0000510E000033
:100DE000C5110000371200001F0F0000371200006D
:100DF00037120000371200003F0E000037120000CB
:100E000037120000371200003712000037120000BE
:100E100037120000350E0000350E0000350E0000C0
:100E2000371200003712000037120000371200009E
:100E30003F0E00000846129928F06AFE73E70D463F
:100E400081480079800700D5C9E011984272E9E332
:100E50001292142A03D16079002800D170E10A931C
:100E60000F9B5878997809020918D8781A791202D4
:100E7000161858799A7912021218D8791B7A1B021F
:100E80001818129B152B00D0D9E189B21B2311939E
:100E90001B290F4600D8119F2923DD001B292B4653
:100EA00000D33346FB24FB2F00D32746674EFB2994
:100EB000314600D8194689B2CB08292B119B00D3A3
:100EC0003B46A9420E4600D82E46604FB942214605
:100ED00000D819465D4B9E4200D35C4E97B21B2F43
:100EE0003A4600D8119A1B2F2B4600D30346FB2A03
:100EF00000D32246FB2F554C204600D8184683B21B
:100F0000D80829280E9F00D31192AB42184600D86A
:100F10002846A34200D80BE2FB22204609E20A93AE
:100F20000D9B0E9E0F980F4641788078814209D123
:100F300007200840129A107000D109E3491E0142AF
:100F400000D14DE318211E24384622461FF0E8FA4E
:100F5000B97900222046134618F0A4FFB07840214A
:100F60000143B170DFE60D4610980078C00600D549
:100F700082E1122054E326460D461099087C012890
:100F80000C4616D00F98811C4078119A10708D2055
:100F900040002F4628180224224626F050FB014626
:100FA0004720800028182246109C26F048FB01208C
:100FB00020747079002800D1C2E0A07C002800D005
:100FC000B1E6617C002900D0ADE628460C2106F090
:100FD000D1FC002800D12DE30120A074A3E628460F
:100FE00012991DF0F4FA9EE61E460F9A08465178B3
:100FF000927828F087FA3878012800D03EE12878E6
:1010000001460F39022900D321E2012070738AE6DC
:101010001298007895E01D460D9C0E9A1298007863
:101020000E380828109B00D97DE64000784480885F
:10103000400087440E00AB020D000D00A7020D001A
:10104000B3020D00B902C0462A6A00209042000097
:1010500069E6032072E00E97109F12950A93887933
:101060000C4628F067FC0028204600D10AE10F2139
:101070003A225AE112950A930F980C46811C407847
:101080000C9E3070B01CF54D02270F903A46A847D1
:101090000146301D10903A46A8470146B01D0E90FB
:1010A0003A46A8470146304608300D903A46A847D0
:1010B000014630780028274634460B9E14D0109AFB
:1010C0001288531E9BB2082B00D3082383420BD3F4
:1010D0000F9B1B88934207D8062A05D33546264620
:1010E000DF4CA24200D222E330202AE01E4608460E
:1010F000623005220D46129926F0A1FA01460C9F96
:1011000038460C30022226F09AFAB8892989401A0A
:1011100080B2D449884200D8BDE0282011E00846BA
:10112000129919F033FD6079002809D0092113982C
:1011300006F020FC002800D17CE202203075F2E5A8
:101140003D20119908720120C871ECE508460C4653
:1011500012991D4619F01AFD2A4602203075109882
:1011600040780007254602D4BF48D0865086BF4845
:101170004078800600D4D6E5908E1B280BD1108EC7
:101180001B2808D12920C000D18E814203D1518E65
:10119000814200D1C7E5142149E000201872C2E560
:1011A0000D4610980078C0077CD11A207073307BF0
:1011B0000D2101283BD1B0E00120B073B3E501203F
:1011C000F073B0E50D9E0E9A0D46109840780921F7
:1011D000084200D139E10F9B5878997801400720E7
:1011E000084058701746D1780140517000D1A2E1F3
:1011F000481E084200D1DDE1032900D9EEE1334663
:101200000220020600D12EE2084200D02EE2C0B237
:101210004008F6E70D460C98807B012800D081E05D
:101220000020207060713080012030730B2128462F
:101230001AF026FD77E511984272084629E08BB234
:101240001B2B0E9F14D3FB2B12D8B3B2DC08292C16
:101250000ED3874CA3420BD893B21B2B08D3FB2B86
:1012600006D82923DD0083B2AB4201D3A34260D963
:1012700014211E22139858E01321D4E1002026F0F7
:1012800001F850E53978890700D5F3E00F2211996C
:101290004A720721C8E10121B9720020E883317048
:1012A000284697E100202070607128469C301190FC
:1012B00001200A9630742846B430684C08261299EA
:1012C0003246A04701462846BC300222A0470146CC
:1012D0002C46A4342F46AC37384632465F4B9847ED
:1012E00012903846314625F0B5F92E46A03604272F
:1012F000304612993A46594B98473046394625F0C0
:10130000A9F9204627F0FEFE119827F0F6FE0A986C
:10131000007B0421012800D0C6E1F422284616F003
:1013200027FF00E514211E2228461FF0F9F8FAE4F1
:10133000119A0A9B5987DE871A87988780B25A8E3E
:10134000824200D302463878A9231B019A421446F0
:1013500000D81C46042800D014460D9FFD88FC8050
:1013600004280DD113981CF0EDFE0246B888131A1C
:10137000581E8341BA800A9E718F0E9800780CE047
:101380000A9AD28EB3B29A4200D31A460D9FBB88F6
:10139000D31A5E1EB341BA800A9E651B6C1EA5411E
:1013A000B78E89B28F4200D30F461D430D9C218812
:1013B0007E1A711E8E4127800E990979012311939F
:1013C0001FF000FD874201D2208805E00E990878C1
:1013D0000979A28828F024FB0A993543E0820B8E14
:1013E000088F834200D303466088191A4A1E914130
:1013F0000D9A0D4353808342139E03D9107D8021A3
:1014000001431175002D11D00A980386D5884586B1
:101410001188818614469288C2861298142800D0BA
:101420008BE0B07900951EF03FFD03E01298142880
:1014300000D087E01521304606F09CFA002800D045
:1014400071E4DE4800781199F7E01620E8E01628EC
:1014500000D068E40E9EB078012181E53F7602005D
:10146000810C0000FE7F0000480800002A6A00206E
:10147000904200000F9B587806909C78D878197994
:10148000090208180D9058799979090208180990ED
:10149000D879197A090208180890587A0790987A2A
:1014A0000590DD7A187B597B0902091814A8018080
:1014B000997BDA7B120251184180197C5A7C120206
:1014C00051188180997CDA7C12025118C180197DF3
:1014D0005A7D120251180181997DDA7D120251184C
:1014E0004181052027F0E1FD002800D191E0200294
:1014F00006994618280205994218139D288914A9AF
:10150000069292B2089B9CB20094019007980290B8
:10151000039204910596B1B20D9882B2099886B2F1
:1015200028460F92334614F00EFF002800D1C0E089
:101530000D9C1E266FE0387899E0217D0820084335
:10154000224600E0107D202101431175FFF7EBFBDF
:10155000287816281D4605D1B9793278002013461F
:1015600018F0A0FC0220A876307828760124747147
:101570002F883179AA8823461FF024FC87421BD28A
:1015800028881EE000202872FFF7CDFB0120287379
:101590001878FD2101401970FFF7C5FB207D12214D
:1015A00001432175FFF7BFFB907812210143917031
:1015B000FFF7B9FB08465BE0287E3179AA8828F05E
:1015C0002FFA0A9FE882B07840210143B1703C7045
:1015D0001821139828F0B6FAFFF7A5FB042046E07F
:1015E00070700F9AD17812791202511899833A8942
:1015F000891A89B2724A914200D98EE51D460121AD
:1016000099760428B1D138461CF09CFDA8807078EA
:10161000ABE70D9C1A2638784007139D12D40F2093
:10162000119948720721284606F0A4F9002801D034
:10163000FFF779FB614800780121890312F048F92E
:10164000FFF771FB0F21284632461EF069FFA9798A
:10165000089880B20090A2B2099883B230461EF07A
:10166000FFFBFFF760FB08461E4601E01E46787050
:10167000C1B2042904D128461CF064FDB0807878FA
:10168000C0B225F04DFB307634883979B28828F025
:10169000C7F9844201D2308804E0307E3979B288BB
:1016A00028F0BEF9F0821721284615F06BF9FFF7F4
:1016B0003AFB119610940A9B059818820D9C5C8247
:1016C000099F9F820898D8820799197606995983AD
:1016D000149E1599169ADE6119625A620C9EB480A6
:1016E000F78030810220307000207080A88EC11DEC
:1016F0000B9A1180698E49080F9A8A4209D1119973
:10170000814206D1E88E00091099814201D1102151
:10171000CAE70E9800780128129933D108780F286B
:1017200030D1F12128461C461AF0AAFA35E0344699
:101730002E4640002070580060805000A080208914
:10174000000120810222284625F079FF2888398966
:10175000401A80B21A49884200D9DEE40D98008808
:101760000E990988491C109A12884A4351008842F0
:1017700021D90120129948740021F9830A9A107026
:10178000384627E7887A002802D008781A280ED130
:10179000F12128461C4615F0F5F8A879218A628ABD
:1017A000A38AE48A009419F009FDFFF7BCFA0F2020
:1017B000C873F3213BE53B20C3E4C046686C0020BE
:1017C000FE7F0000F0B591B0002902D4002400F0A3
:1017D000FFFC0C46294F387817F0A0FE002801D1F5
:1017E00000F0F3FC05460078A2280D955FD0B028E4
:1017F00001D000F0E7FC0EA800210180204E7068A7
:10180000002808D127F0EEFA27F0ECFF70600028DE
:1018100001D100F0D2FC06943E4614360024182272
:10182000304621460B9226F0BCFE287901210C910E
:10183000811E162901D900F0B9FC401C05900796BD
:101840004900C0467944898849008F441B00AF0491
:10185000AF04AF04D400AF047100AF040C02AF04B6
:101860004302AF047700AF044C01AF04D901AF04C9
:10187000AF04AF04AE02AF047902C046F874002092
:101880005074002027F0AEFAB8826888314624F000
:1018900011FE002800D1F3E22889B98A884200D3DA
:1018A0000846B88201200C90032000F06DFC687996
:1018B00065282ED10C370C97384628F01FF90028E0
:1018C00019D006460089B17A37460C373A4610F0EF
:1018D000CBFA0546142801D0002D0CD10C983146C6
:1018E00026F0C4F9142D03D1B17A384626F01EFF34
:1018F000304627F07FFF0C9827F070FF00280D9DE1
:1019000007D0F1480078F1490870F14900220A70C7
:1019100001E0ED480078FF2801D100F053FC294692
:1019200024F05EFC002801D000F04CFC00F04DFCDF
:1019300000210EAA28460AF037FF1EE3688824F02B
:10194000C9FD0490401E0B90B88A00242246A98944
:101950008A4200D3B1E280B20B99814200DCACE252
:10196000089227F0FCF880B210A91EF0E9FF0127C9
:1019700000280C9700D1A9E201460A9468880990D2
:1019800010AA1288EB48436828790B9CA7B200265E
:10199000E94CA51C0095019602970390099806F062
:1019A000DFFC002800D08DE2A06900280D9D079E75
:1019B00009D168880F210023E04A15F051FCA0618D
:1019C000002800D1E5E2A18A62885318049FBB4237
:1019D00003D30B9A521A628092B24018D5494968D3
:1019E00026F050F96088A18A0818A082089A521C33
:1019F0000A9CA41CABE7688824F06CFD27F0CDF8A6
:101A000010AC009418F0DEF90546781F0A90F81F14
:101A1000C94F002480B20990B81C0890A1B2002DD3
:101A200000D11CE20A98884200DC18E20B910C9469
:101A30000D9F788810A90A88BE494B68397900241F
:101A4000089E00960194099E02960391294606F08D
:101A500087FC00281CD13A8AB7484088824217D1B7
:101A60007869B449496824F0A5FF0028B24F10D026
:101A7000B86900280AD10D98408807210023AF4A91
:101A800015F0EEFBB861002800D12BE36C8900E073
:101A9000A94F0D98418910A802880FAB284615F070
:101AA000F7F90546002C13D0B8690C9A511C0B9B12
:101AB000C454200A1446BA69A31C89B25054002D9C
:101AC00099B207D00F98BA6950540FA8407804E033
:101AD0000C9CA3E7BA69FF205054E11CBA69241D8D
:101AE00089B250549AE7688824F0F4FC27F055F83E
:101AF00010AC009418F066F90146B81F0A90002552
:101B00008D48801C099008950C950D46002D00D13C
:101B1000EFE10D9C608810A90A88294618F038F872
:101B2000002800D0E7E10C9F60880B9010A90A887C
:101B300080494B6820790A9CA4B200262946099D59
:101B4000009535460196029403900B980E4606F0D8
:101B500007FC002800D0D0E1BCB2002C0FD07648A2
:101B6000C18A4088021D8A4200D0F3E100190A9917
:101B700088422F4600DDEEE16F4FB86910E00D9806
:101B800040881127002339466C4A15F069FB6A4AE0
:101B90009061002800D178E25188091DD182174652
:101BA000B17A0C9B5A1C0155F07AB9699C1C92B20F
:101BB00088540D98418910A802880FAB304615F063
:101BC00067F905460028A1B205D00F98BA695054AC
:101BD0000FA8407802E0BA69FF2050540C9BD91C32
:101BE000BA6989B250541C1DB869A1B24018514954
:101BF00049687A8826F046F8788800190C9085E7BD
:101C00000124287C0027022804D1687C012801D106
:101C100003270024288910A91EF092FE002C00D171
:101C200028E10646002800D124E1307A80060CD550
:101C300010A8008826F091FC002800D122E203467B
:101C400068881222314698470746002F079E00D029
:101C500038E268882989EA686B896C7C002C00D19D
:101C60001AE2522519E2288910A91EF069FE0028FF
:101C700000D10EE1064668880B21304A0FAB15F003
:101C8000EFFAB861002800D12CE1034668880C9077
:101C900010A90A880FA908882C79002707990091B4
:101CA0000197029003940C98314606F059FB0028E6
:101CB00000D139E106462048806913F0D7FB162E83
:101CC00000D138E13746E5E02A7A0020297A002061
:101CD000E67A0020288910A91EF032FE002800D1E3
:101CE000DCE0064668880D21144A0FAB15F0B8FAFF
:101CF000B861002800D1F6E10346688810A90A8877
:101D000069890FAC24882D79079F009701AF32C7EE
:101D1000314606F025FB002800D10FE107460648B2
:101D2000806913F0A3FB162F0D9D079E00D10DE1D6
:101D30002BE1C04650740020F8740020FFFF000023
:101D40006888089023F05CFC0A90002800D1A8E085
:101D5000287A012800D0E9E1FC48857809942046DA
:101D6000C6B2AE4200D321E10A9A52680C237343F3
:101D7000D75A002F00D11AE1002C0ED0BC4200D05F
:101D800046E1D21853888EB29E4200D040E192883C
:101D9000099BD3180993511805E0D1188A884988FE
:101DA000099289183C46401CDAE7688801242146DC
:101DB00024F074F9002876D00C942E46083630882A
:101DC00010A91EF0BDFD002800D190E00746007A62
:101DD000800600D597E06F88384623F011FC002874
:101DE00006D1DB4823F00CFC002800D1B0E00780CE
:101DF000D6498A780C2151430C3100231A460C3203
:101E0000914200D1A4E04468E35A002B1346F6D176
:101E1000A0180C380C2731463A4625F033FF079CB2
:101E2000204631463A4625F02DFF6888AA891721B9
:101E300000273B4615F014FAF549C861002800D187
:101E400088E12969AA8925F01DFF6888214622F0CA
:101E5000E3FA0028264600D0CDE10746CCE1200475
:101E600025D08808B8820D9D6888079E314621F0EC
:101E7000EFFD80E0002C079E00D121E1012721E148
:101E800068882989BA8A914200D311461DF02EF93B
:101E90008CE1012728890EA908804CE00127079EC4
:101EA00073E0089847E1142068700E2720E10D9D2B
:101EB00028890EA908800A2719E16888314622F08E
:101EC000D7FA3AE107460D9D079E0A9C26F047FE89
:101ED0000EA90880CE488069002800D140E113F0A7
:101EE000C5FA3DE128890EA90880112723E00C9F3F
:101EF00032E1089F2FE0074601E007463546688932
:101F00000EA9088027E010A8008826F026FB0028EC
:101F100000D1BFE00346688812223946984700285E
:101F200000D158E7074617E16888079922F0B6FA0A
:101F3000002800D0162701200C9010E10D9D688824
:101F4000079E314622F07EFA002818D10027CFE004
:101F5000092701E12F460C980004079E11D0AC4DD3
:101F6000E98A0C9880B21FF015FCA8820D9D688844
:101F7000314621F085FD002801D10746B8E016273B
:101F8000B6E0002F00D10A270D9D28890EA90880F0
:101F9000AEE0A8680A9A8118805C4978090208189E
:101FA0000EA9088001200C901127DDE02846C0B260
:101FB0000128099860D900042AD0099880B21CF041
:101FC00069F9002824D00B90B54200D335460C2780
:101FD0006F43002425460A984668A74200D18AE04C
:101FE0003619B16800290AD0A8B20B9A1018B28825
:101FF00025F048FEB0884519B06813F037FA002C78
:1020000004D000210C22304626F0CBFA0C34E2E753
:10201000002201231746591E7E48807881420D9D7B
:10202000079E00D3DDE00A994C68A15A002900D12F
:10203000D7E083420B9806D0A0188089002801D0F1
:10204000162000E018206F880C92A618B268099339
:10205000B388758800950190384614F0D3FE099B2B
:102060000746002804D0162F00D0B4E00020B0604E
:102070000C9A0C325B1CCEE70A984668B268B388AB
:102080000D9D3FE00E27079E1CE070890EA9088079
:102090000D9D2CE00E275FE02D7900240094019522
:1020A00014F0B0FE162819D0074600280D9D07D160
:1020B000687C002800D1A1E001200C90274606E0B2
:1020C000002F09D028890EA9088001200C90687C77
:1020D000002845D0002743E00027F6E70C94274668
:1020E0000D9DF4E70D9D28890EA908801127079EF4
:1020F00001200C9034E00B9AB260099BB3800D9DD7
:1021000068880890318870881824009001949BB2E8
:10211000089814F077FE002808D00746162811D139
:102120000020B0600A981DF08DFA3FE00A981DF07B
:1021300089FA079E688826F0A9FA01210C910028E7
:1021400026D133E030880EA9088049E05074002081
:10215000FFFF00000C97112730880EA90880079E0A
:10216000002F13D0162F11D0687814280ED028799C
:10217000274908750E98C8820F766888314625F081
:1021800015FB002802D00120059001E0162F0DD18B
:1021900068880599CDB22946324614F01BFB002809
:1021A00003D03046294626F0C1FA0D9D28461FF07F
:1021B00051F90C980028069C04D02846083029794B
:1021C00026F0B4FA284624F015FC0120C007844309
:1021D000204611B0F0BD0C98205A0EA908800D9D24
:1021E000079E0A981DF02EFA01200C90162FDDD0C4
:1021F000002F9FD0B4E7162700207AE7688826F0E2
:102200004DFA01210C91002800D157E71627A7E7C6
:10221000F874002050740020F0B591B00446807826
:102220000025102800D9BFE34000C04678448088CC
:10223000400087441000B903B903B903B90356003D
:102240003A00B903B90320015000E500FC00B903CE
:102250006E01370172036078002800D0A4E326F0F5
:102260008BFD079026F078FE089023F065F90BAC03
:1022700020700226102730463946079AB04B9847FF
:1022800003203946089AAE4FB84704200121224660
:10229000B84720783043032800D085E3012017F0A9
:1022A00059FD024606200146F9E0A0881FF0D2FA47
:1022B00027F02CF8002800D076E3A24CA07B012860
:1022C00000D05FE123F06CFE0021A173606A627DA3
:1022D00026F067F95DE16078002800D140E1002632
:1022E000FFE26078FC2802D0002800D05CE30126E1
:1022F000E178201D62890892277B002500953140F6
:1023000009AA2B4626F039FC00286DD109A80078CF
:1023100024F029F804463E46083E701E864189484E
:10232000C07D800027F05EFA0790002800D177E199
:1023300009A8069001788348C078801E4242424135
:1023400000920898059422463B4619F0F6FD0BAC26
:10235000002714222046394626F023F906980078F3
:1023600006210691484324301021224625F06AF8C0
:10237000002818D10BA8FF21102224F0E0FC00282F
:1023800011D109A801780698484325300BAC2246A4
:102390001032042125F056F80121059801400898D3
:1023A00022461CF005FA09A800785321890040183C
:1023B0006449C97D8900079A25F044F8002800D1B6
:1023C0006DE16048007E002807D10598800704D59C
:1023D0005D48017808981DF08FFC09A800781AF074
:1023E0001DF8079827F006FA002E00D1DCE25548C8
:1023F000C078022800D0D7E2089827F03FF8D3E24F
:10240000012526F08BF9002800D1CDE24D48C06AA5
:10241000002800D1A1E00668002E00D19DE0E01C5C
:102420006189227B637B24690094B047BCE2A58864
:10243000277B28461EF03EFC002800D1B3E204466C
:1024400026F06CF9002800D0ADE2A01D61790023D0
:102450000093012631400BAA26F08FFB002800D103
:10246000E2E03848C078002800D097E205212846ED
:1024700024F0CFFB97E2201DE17800230093012593
:1024800029400BAA26F079FB002800D08CE20BA88B
:1024900001780620484325300C340421224625F0DB
:1024A00021FC81E2274FF86A002806D04368002B00
:1024B00003D0A08800210A469847F978A08800290F
:1024C00053D01EF0F7FB002800D16DE20646A07A3B
:1024D000C00715D0B01D727900230093012111406F
:1024E0001A46089326F049FB002809D07079022883
:1024F00006D3A08953218900B431084200D1F0E00D
:10250000F87B022836D1A07A000733D4A0880321B3
:102510002DE06078062800D0B2E0A0881EF0CAFB4B
:10252000002800D1ACE00749897C491E032900D965
:10253000A6E0C0467944097949008F440799949EE2
:10254000E57C0200307300201B6B0020A3884179DA
:102550000022184612F0AEFC92E06089012106E0EC
:10256000A079C0071BD10026C0E10125052124F078
:1025700050FB19E20125A08808347179224612F037
:1025800099FC11E2E07C002839D011F0F9FF00201D
:10259000E074502023F098F81CF072FA04E209A8C5
:1025A000002508262946324625F0FBFFA0881EF0AC
:1025B00081FB00284CD007466069002815D006979B
:1025C0000790113000210622089024F0B8FB002863
:1025D00000D1A4E0002706220798394624F0AFFB7B
:1025E000002800D183E06761069F787901210140CE
:1025F00009A88171B91D062225F044FBB4E0607D75
:1026000000268642C5D2616A895D012906D1F0B2F1
:102610000BF02CFC606A00218155607D761CF0E790
:10262000042024F02FFEBFE10BA8007823F09BFECE
:10263000FF2800D1B2E10246780745D4002A43D1F1
:102640000BA80178A37C0096284619F076FCAAE135
:1026500024F0F0F8002800D196E0E4480078042146
:1026600011F036F990E0E34800210A4602F074FECA
:10267000A08805211CF0A2FC02E0A0881FF012FE39
:102680000125DB48C06A002800D18DE14368002B9A
:1026900000D189E1A08862780221984784E1079CF3
:1026A000204624F0D7F8D248C07D874200D388E680
:1026B0002188002905D0A278089824F0B9FACC48DE
:1026C000C07D7F1C241DF0E70C2007400C2F00D19B
:1026D0005FE1082F00D158E1042FB1D1D007AFD16D
:1026E0005CE1A088032124F094FA089D5CE1059642
:1026F0000798007C0121014007913E46761C08980E
:102700000670009707993A463B4626F036FA0028AD
:1027100001D13006F2D13006059E00D163E762692F
:10272000002A069F20D00596107C0121014009A8AF
:1027300081710892164611360622314625F0A2FA1A
:102740007879012805D138460C30B91D062225F0CC
:1027500099FAB81D0622314625F094FA0898007CB3
:10276000022101437971059EA1793879FD22024049
:10277000480802230340D018090702D4DF2108408B
:1027800001E0202108433871A0794107C90F09AA47
:10279000D37906401E430E43D6716169002921D0CA
:1027A0000BAE102730463A4625F06CFA30463946D3
:1027B00023F050FF904800780D27904E854211D2AB
:1027C0003168C9190A460D3A1278FF2A07D00BA8BA
:1027D000102224F0EFF8012806D0874800786D1CFD
:1027E0001E37EBE7FF2600E0EEB209A8817900254D
:1027F000009510AA2B4626F0C0F9FF2E1DD03428D4
:102800001BD17B48007D012862D0002815D17B4870
:1028100001681E2272438818401C895C00260096BD
:1028200010AA334626F0A9F9002806D110A800788E
:102830000BF01CFB002800D1B9E009A881790095B4
:1028400010AA2B4626F099F9002804D01EF0C2FFEA
:1028500010A908701DE0616910A80078002918D03F
:1028600006234343233310210BAA184624F0EAFD24
:1028700000280CD10BA8FF21102224F060FA0028B8
:1028800005D109A98A790120104024F087FB10A8FE
:1028900000785749497D884218D2A26826460C36EE
:1028A0004ACE0F69009601910297039509A90AF093
:1028B0007BFB00283CD00646A08815F08BFF10A8B3
:1028C00000780BF0D3FA1CF0DBF806E0152604E0E4
:1028D000A08805211CF072FB0126A0881EF0BAFF1B
:1028E00060780B2802D1A0881FF0DCFC404DE86A1C
:1028F000002812D04368002B0FD0A08862780121F5
:1029000098476078002808D1A079C00705D0E86A08
:102910004368A088032132469847012523F08AFFA7
:10292000002841D031480078042110F0D1FF3BE06D
:1029300026F070FA0646A0881EF0BCF9002E15D0CD
:10294000002813D0407CC021014040290ED009AAA4
:10295000917901273940304615F0BCF8FF2805D0A1
:1029600009A9887938403A4624F034FBA08815F04C
:1029700031FF1F48817DA088002902D01EF06AFF28
:1029800001E01DF065FC2E46AAE70920024205D0B1
:1029900056E6D00702D0100700D551E66179002233
:1029A000284612F087FA0125284611B0F0BD1CF028
:1029B00067F81EF00FFF10A90870A1680891E16880
:1029C000236962690029374600D00F69009201919E
:1029D0000297039609A9089A0AF0E6FA0646A08823
:1029E00015F0F8FE002EC4D069E7C0461B6B00202E
:1029F0003073002009040000936C0020406C00201C
:102A0000F0B595B00F4609780626002902D17C78EA
:102A1000012C02D1304615B0F0BD0692BD781D2DB7
:102A200001D01B2D1CD132490978FF29F2D0002694
:102A30001D2D079070D122F0A7FD00286CD005460F
:102A4000827A002A67D050B200260028E2D41D21E5
:102A5000079823F01FFFA87A80210143A972D9E7C4
:102A6000079022F091FD0024002800D1BCE2012D46
:102A700006D10546B868B98809AA24F0BBF80BE06E
:102A8000817804268D42C5D14368002BC2D005460B
:102A9000B868B98809AA984706460028BAD12E46D0
:102AA000A878401FC1B2C20149085118C9B209290A
:102AB00000D9A3E001252A468A4057231A4200D1B3
:102AC00096E0BF78E8410928059500D95EE2059DAA
:102AD0004000C04678448088400087440B001A01BB
:102AE0009800570239015702510157025702E1007D
:102AF000E0790020052F00D026E126F021FB09A96E
:102B00008A780A980988012A00D0EAE189004018E9
:102B1000011FC01EEBE12E460596BA68BB8809A8C6
:102B2000009000252846214622F0D6FA06460028C5
:102B3000079A00D06EE70FA8FF21017008A8057062
:102B4000F54E706800280AD00368002B07D008A94A
:102B500014460FAA20469847224600281CD03078F9
:102B6000BB7809A900910024114622461BF0EEF91A
:102B70000646002800D04DE70A98002801D00698A4
:102B800004700599002900D12EE2B8781D2800D0E4
:102B90002AE21D20887227E20FA8017808A802788F
:102BA000204618F077FC22460028D8D00A98002842
:102BB00002D00120069908700599002908D0B8783C
:102BC0001D2805D11D208872104621F0B7FB224632
:102BD000706800280AD04468002C07D010461646BA
:102BE00025F020F8012801D13046A0472E4611E7F4
:102BF000092903D13169002900D062E73546707A8E
:102C0000C6490978884200D0DEE00026F1E0092FAD
:102C100000D000E109A801884A1E408842432423CD
:102C2000F55C6D1CF5540A9B92B29D189A5C6B780A
:102C30001B029A180292327B012A00D04FE10197C1
:102C4000414309AA0027178089B2039104963546AB
:102C500013353946CEB203998E4200D33DE1049933
:102C6000897C0A9A9219521D401F83B228461CF093
:102C7000BFF8002810D0B8B2864206D00A990818CA
:102C8000891909AA528824F0FDFF09A94888C719A3
:102C9000099A521C0A8001E009A840883118D9E736
:102CA000307B012800D0C2E0172F00D0E7E0306968
:102CB000717D0C256943425A09AB1B889A4200D0AA
:102CC000DDE04018418809AA5288914200D0D6E040
:102CD000828809A989888A4200D0D0E080680B994F
:102CE00023F068FE002800D1C9E00197707D411CE7
:102CF000C8B271753746317D884200D37EE13969AB
:102D000045434E193888495B7288B388B568009589
:102D1000AAE0072F18D126F013FA0A9809A9098802
:102D200089004018011F0978C01E00780002401871
:102D3000F189884200D31AE131460C31401CB08140
:102D400030881AF036FEE0E009A800790A28A4E0ED
:102D50000D2F00D09EE026F0F3F909A805883088F1
:102D600023F0B8FB401EA84200DD00E131460C31E3
:102D70000998F2891018F081308824F05FFDC4E0D2
:102D8000112F00D092E00998401E09A949884143BB
:102D90002420325C521C32540A9889B2401881783F
:102DA000C0780002401800259949884200D1F3E01C
:102DB000411CB181F189814200D8EDE031460C31EE
:102DC000308822F041FEA0E0BB7809A900910024E0
:102DD000079922461BF0BAF80646002809D1B978AF
:102DE00009A81DF023FF0028264602D000260698D9
:102DF00006702946A8780328079808D1898909AA66
:102E00001288914200D311461CF070F929460846F9
:102E100015F00DFFFEE509A80079062801D00A2863
:102E20007ED12420305C00283ED101207BE0172F8A
:102E300025D1308823F04EFB401FB18B0A18B28396
:102E4000718A511A8BB2B18A8B4200D391E00197FB
:102E5000CD1A854200DB05463088318A3746B6698F
:102E6000F3180093ABB292B21BF00DFB002800D117
:102E7000BCE00FA8002101703E46019F02E00FA8B0
:102E80000021017030880FA924F09CFC012F17D17C
:102E900001201EE009A800790728059D76D124208D
:102EA000305C0028059D71D0002556E009A8007906
:102EB0000A28059D6AD12420305C454245414CE0FA
:102EC000307A514919F094FF1920B0704F48706062
:102ED00016200125012859D084E0049E019F029903
:102EE00025E012224A438018014612391138097828
:102EF000007800024018F189884238D231460C31FE
:102F0000401CB081308824F069FC307A3E4919F0C9
:102F10006FFF162540E0C046E0790020796C002064
:102F20002420305C401C2421705409A84188481E8C
:102F300000250A46374988420FD8308A82420CD28F
:102F4000521CF281317B012916D10FA90A804880D9
:102F5000314888802820887110E0012F16D1002D7B
:102F600014D109A800790A2801D101252DE00025F6
:102F700012E00FA8012184E731460E31308822F09B
:102F800075FD307A204919F033FF162509A8092F5D
:102F900002D10088002813D0707A09A9009100227C
:102FA00007993B461AF0D2FF002802D00120059075
:102FB00006E009A839461DF039FE4142414105911C
:102FC000162D0ED0002D059D07D1707AB378002103
:102FD00000911A2207991AF0B9FF304615F027FE22
:102FE00000E0059D06980570264613E53E46387AB2
:102FF000054919F0FDFE1620019F6AE73E46B87D9F
:103000000FA9087039E7C04630750000E59202004C
:10301000FFFF0000FDFF000002030000F0B593B0C9
:10302000002800D12FE204461B20000120180D903B
:103030005B20800020180E90FF2001466631631847
:103040002321C900611809910146063161180B91CD
:103050002146F0311091214684310F912646773672
:10306000214676311191214667310C910E3020189E
:103070000A90581C03902046E03006902046A43069
:1030800005902046D03004902046B4300890204669
:10309000BC3007901F4F1293B07A0025002800D152
:1030A00059E2317808462D380D2800D8F0E1881E05
:1030B000282846D84000C04678448088400087448D
:1030C000F40149002B00D900AC00F3004900800056
:1030D0004900FA0026017B009D00070172003801BB
:1030E00052014900620049004E0090004900490029
:1030F00049004900F00149004900490049004900E0
:103100004900EC01EC01EC0149004900490049008B
:10311000F001C0469C69002026F090FA00D0F4E14E
:10312000F87A002800D1C8E100200C994871F121FB
:1031300026F088FBA0790899079A1CF0D9FE129B0B
:10314000AAE7F22900D114E1F12900D103E2F32921
:1031500000D1E8E1002024F095F8129B9CE726F0CE
:103160006DFA00D0B1E10D9A107B410642D4C1073F
:1031700000D07DE1810700D404E2BC210840107337
:10318000A1791A207AE126F059FA00D09FE10D9A30
:103190001078810600D51AE1810700D48DE1DD2188
:1031A0000840107025E126F049FA00D0A5E1187911
:1031B000012800D194E02FE126F040FA00D1BCE0D4
:1031C00089E126F03BFA00D0A1E1F87A002800D18D
:1031D00073E1608CE08302201099087526F09EFA56
:1031E0001EE126F02BFA00D08BE10D9A107B4106F0
:1031F00000D462E1BF210840107311E126F01EFAED
:1032000000D06AE1109F387D032800D10DE102282B
:1032100000D0ADE126F082FA0EE126F00FFA00D0E0
:103220006DE1F87A002800D147E1608CE083204608
:1032300019F084F901250C9F3D7020461BF075F9AB
:103240007D71109D297B0B98027810201040012978
:1032500000D0F7E0002808D00020129908704878C4
:103260000999896C490819F0C3FDA079002120F063
:10327000E9F8F6E026F0E2F900D081E0F87A0028DB
:10328000109F09D001210F988175A0790A4626F078
:1032900049FB00207860B860B87B012800D00CE1C1
:1032A000062126F0CFFACAE0072126F0FFFB01280D
:1032B00000D1B5E04FE126F0C1F974D11098C07B80
:1032C000012800D0F9E0F12126F0BCFA129BE3E6D8
:1032D00026F0B4F900D016E11879012800D08CE06E
:1032E0000E98007E0F2803D0002023F0CBFF129B06
:1032F000002018710E98407EA1790F9DAA8952086E
:10330000EB892D8A2D0900951CF086FD88E026F0BA
:1033100095F900D0EAE00B99087C012800D0F8E08C
:10332000487C01287CD125F046FC00201DF06DFF73
:1033300076E026F083F900D0CBE0F87A002810D0B0
:1033400000220F988275A0790127394626F0EAFA03
:1033500002960C9E377020461BF0E7F87771994F64
:10336000029EB87A5AE026F069F900D0C3E0F87AF4
:1033700054E00F98817826F065FA012011990FE04A
:1033800010990878012800D1E8E04878002800D199
:10339000E1E006980599049A1BF0D2FA01201099F1
:1033A0000870129B78E60B2126F080FB012800D0E4
:1033B000D1E000221098C2730F988275A079012580
:1033C000294626F0AFFA11980570129B64E6DF21BA
:1033D0000140117001070CD5D72108400D990870E4
:1033E000A0790E9D298EAA8E6B8EED8E00951CF015
:1033F0005BFD00200E99887712E0D87801280BD168
:103400000020D870A1790F9DA8894208EB89288AED
:10341000000900901A2077E70F98007900284CD017
:10342000204619F08BF8129B36E6A1791A200A9AE9
:1034300019F0A8FF00203875204619F07FF8129B7C
:10344000604F29E6002807D00998806C42085E4842
:103450002146039B25F0C8FDA079002101221FF021
:10346000D7FF584F002028732874E881129B13E679
:10347000BE21084010730E98407EA17900221346A9
:1034800016F010FDCCE7002023F0FCFE012562E0E1
:10349000204626F093FA05465DE0204626F062FAC3
:1034A000F9E7204626F052FAF5E726F0C7F84DD1A5
:1034B000B87A002801D0162103E025F0D7FC4AD1C4
:1034C000222120461FF0D1FEE0E716213FE0142123
:1034D0003DE011213BE00D2139E00E2126F0E6FA16
:1034E0001199087001201099087534E001200B999A
:1034F00088740C212BE0122129E0102127E00621FD
:1035000025E0172123E00F2121E004211FE00921FC
:103510001DE025F0ABFC1ED125F04DFB22252846F1
:103520001DF073FE38E00F98817808460C380828A3
:1035300042D8C0467844007940008744043D0430B6
:103540003D3D3D3D040026F07DF90FE0022126F0CF
:10355000ADFA11990870284613B0F0BD052126F088
:10356000A5FA0128F7D10025109885730120F0E70E
:1035700025F07CFCEFD1A179222528460A9A19F082
:1035800001FF09E025F072FCE5D1A1792225002296
:103590002846134616F086FC2046294692E7F1217C
:1035A00026F050F9A0790E9C21886288A388E488CF
:1035B000009417F003FECEE70025284623F062FEB4
:1035C000C9E7C0469C69002019760100F0B5A5B096
:1035D0000446FB484068002802D0804700284BD0B2
:1035E0000321F84BF8480078421E1394002C0E92E9
:1035F00000D001220904159159780F9199781691FC
:10360000DA731F46183700241494844222D2169885
:10361000A0421AD0E5B2002117AA04262846334654
:1036200024F0E4F917981599084202D01499491C1E
:1036300014913043C0B27C2806D10621F8262846D2
:10364000324624F0DFF93E70DE4B641CDE48007821
:103650000C37DAE71499C9B2401E884204D1587970
:10366000002801D100201FE201200490C20213991A
:10367000002903D0084602E00B2015E21020511A61
:1036800005911292101A089000200C9007900F9D3F
:103690000E9C0C99200400D1D4E11491D87B002811
:1036A00001D10120D873EEB2002717AA04233046B7
:1036B000394624F09BF917981399002913D01599CE
:1036C000084213D0701CFC4909781EF063F80D46BF
:1036D000F84B129818825973D87B401ED873641E19
:1036E0001499491CD6E70B970F9D02E00E9414998C
:1036F0000B910F95C0B2702804D00F98C0B2702102
:103700001FF008FF1698C4B2002517AE0423204608
:103710002946324624F06AF93078FE2803D0FE218B
:1037200020461FF0F7FE0621FE262046324624F0F2
:1037300069F90C22104660431194DE4F3946163168
:103740000C18A01C0A90A67016983873129838822C
:103750000F987873C3B21693149210465843081802
:10376000C6887E82FF20B873BD827D208100D44848
:10377000069125F0DFFBCE480570F87BCF49169AFD
:1037800051180818CC49097800B216911AF0E6F8D9
:103790000F9B3A46119F1091A01D0990E0880D9053
:1037A0002946DCB2BC4200D1BCE0E80700D0CEE044
:1037B000B7B2162F00D89CE0BD480078002800D092
:1037C00050E716910F93F01F039081B218AD204679
:1037D0002A4617F061F8E98908461030B8420DD83A
:1037E000A87A96280AD10398451A18A8427AA8B24E
:1037F0000391234619F0E8F9002828D0751EAD4A38
:103800000F9B119FA8B2172800D219E1362802D8C1
:103810002E46163E00E02026AD1BB3B2A9B21DAA6B
:10382000204624F0E3F8A34A0F9B3004EAD0B0B25C
:103830001DA94018401E0078962801D0761EF4E796
:103840007619002516999C4800781690A9E70195ED
:1038500018A8C07A0025C107964A119F04D1800795
:103860000F9B04D4019EEDE7019E0F9BEAE70398AE
:10387000C11D0D9880B2039189B209181298009168
:10388000814201D9049DDDE789480078019F039EAC
:10389000310420D000281ED10396B6B20698864285
:1038A00000D3069EB9B220460297854A334624F0DB
:1038B0009DF80D9FB9B21198814A33461FF0CAF99D
:1038C0007B490870BF190D97029FBF1903998E1B82
:1038D000784A0F9BDCE71699491C1298009C844299
:1038E00003D1019E0D90049D01E0019E0D94119F56
:1038F000A9E7002903D01498604310188683109814
:10390000C0B28442119F29D0601C169989B21DF063
:1039100041FF684A0B460846149948431018868BA5
:1039200000253DE762480078002800D09AE6169A04
:1039300011B262481018001900B21AF00FF85D4A6F
:103940000B46C8B2149948431018868B0CE0002926
:1039500005D0149844431019868300E0109B544806
:103960000078002800D07DE60D991182968293732D
:1039700009980180517B1220125E012438462346AB
:1039800021F03AFD4B48817B14204A4A125E022303
:10399000384621F031FD4748008A1399002907D0A5
:1039A0000599814207990B9E04DB2146079401E0AB
:1039B00000210B9E11910899814207DB7C2106E0D2
:1039C000A8740020C8630020696C00207821384664
:1039D0001FF0A0FD0CF010FE05463846354FF97B70
:1039E000491BF9730621FC24224624F00BF80A989F
:1039F0000470B878B1B2691808182F490E783146AA
:103A00001DF0C8FEB9701691481CC0B231461DF0B9
:103A1000C1FE7970B97B149848433818808B102800
:103A200005D1481C31461DF0B5FE224B00E03B4657
:103A30000F910E98401B0E901198C00702D126E6F8
:103A400010268CE77C2020F02BFA0446FF281AD1A0
:103A50007E2020F025FA0446FF2814D115494C7821
:103A60000C2060430818807DFF2808D08878124910
:103A700009784018401E19F071FF0C4603E07E21C2
:103A800020461FF047FD0B4DEC70E0B20C21414386
:103A90006818808BE880A878FE211FF03BFD00208D
:103AA0006871288A1299081A00B225B0F0BDC04684
:103AB000A8740020C8630020696C0020FFFF00008C
:103AC00054550020F0B59DB00446FB4E3078FB4DB8
:103AD0002870032800D024E100203070287011A83D
:103AE00025F094FA002800D019E101200F901190E0
:103AF0002846243011A91DF031FA002800D00EE12B
:103B00000F98C0020D90EE4F5E21384625F012FA54
:103B10000C370A21FF2238460C9225F099F820F044
:103B2000E3FE0020109021461CF0BAFAA860294656
:103B30000C3125F0FBFA2C696D69204629461DF0F1
:103B400029FEC1B2062900D30621DD480170DD4FF0
:103B500039700D98854200D0E1E0C802844200D25D
:103B6000DDE0D6488068002800D1D8E0D44A109E15
:103B700056710C9BD3700F98C002D08006960996A0
:103B800007960596049608960A9601930293039366
:103B9000CCB2A64200D3C6E0F4B200251CAA04238E
:103BA0002046294623F022FF1BAA20460E952946CF
:103BB000F14DA84701271AAA20463946A8470221F5
:103BC00019AA2046A8471C99C8B20246703A0E2A84
:103BD00004D83B469340E94A134203D10246FE3AD9
:103BE000022A03D28A0CE64B9A421FD0204610F0DC
:103BF000F9F8DD490870002800D0CAE035460026F3
:103C00001CAA04232046314623F0F0FE1BAA2046BE
:103C100031462E46D84DA84701211AAA2046A8476A
:103C2000022119AA2046A8471C99C8B20C22109656
:103C30007243CE4B9E183346163318700A0AF2753B
:103C40008903890F71761BA989783176FD2801D9FE
:103C5000102126E01BA90988CA4A914221D10B9361
:103C60000E9814900D9DA8B2051FA9B214AA0423A2
:103C7000204623F0BBFE1498411C03D12946C24ABA
:103C80001140F0D139460B9BFAB2042A06D8C2B2D1
:103C9000FF2A00D03946000A7F1CF5E7C8B2291870
:103CA0001878B1831AA98978B1761A99F18319A97C
:103CB0008978F17619993184702828D07828AC4F0A
:103CC000109E20D07C280AD07E2812D0FE280BD04F
:103CD000FF2814D10698401C069003961CE0059816
:103CE000401C0590029617E00998401C09900C961C
:103CF00012E0B0B201900798401C07900CE00A98BF
:103D0000401C0A9008E00498401C049004E00898C5
:103D1000401C0890964F109E761C397838E7012099
:103D200030701DB0F0BD0A9800060BD10998C0B2E2
:103D3000012807D80898C0B2012803D80798C0B254
:103D4000012810D98B48042202700024CAB2E0B2C4
:103D500090420FD210F046F8834A11780143117057
:103D6000641C3978F2E70698C0B2A04214D18148A9
:103D70000022027000207D4C6070491EA170E0702E
:103D8000A18BE1807E211FF0C5FBA078FE211FF0F2
:103D9000C1FB75480078C4E70898000624D009984C
:103DA000000605D10698000603980C9000D18BE020
:103DB0007048022101706D4E0C9FB770781C80B264
:103DC00021461DF0E7FC7170FCB2204610F00AF8A5
:103DD00065490870FE2120461FF09CFB0F9870710A
:103DE0000020FFF7F3FBD4E7099800061ED00C98DB
:103DF000039060480F9A02705C4C0398A070401CBE
:103E000080B2C9B21DF0C6FC6170029880B2FF2872
:103E100022D10198FF2800D098E0544AD17088B28E
:103E20000C2141435018808BD080B2E70598049A4A
:103E3000104300064E4F85D021F0CAFAA04247D366
:103E40000698000600D18AE048488078FE211FF0DD
:103E500061FB47480178CCE7444A0299D1700C21B4
:103E600041435018808BD080182892D3C11F0298EC
:103E7000C0B289B214AC224616F00EFDE07A4007BB
:103E8000AED53A49C878C98814ACE289891AC91FE5
:103E90000022009289B20323224608F0F9F8002894
:103EA00000D076E7A189002900D172E714A8007C30
:103EB0001DF090FB6DE7C04653780020A8740020E9
:103EC000C8630020696C002021F082FAA04246D22B
:103ED00028480321017021F07BFA0446234E3073F9
:103EE0000C25284660433018817E7173C07EB07304
:103EF0000CF082FB00191E490C7821461DF04AFC8B
:103F0000B170481CC0B221461DF044FC71707C2089
:103F10001FF0C6FFFF2810D17E201FF0C1FFFF2831
:103F20000BD1FF201FF0BCFFFF2806D178201FF027
:103F3000B7FFFF2801D10D4840780C49C870C0B2C6
:103F400045434819808BC88088781FE70749019A44
:103F5000CA700C2050430818808BC88019E70548A8
:103F600006210170FEE7C046A8740020C863002047
:103F7000696C0020746C0020ED8702000151000084
:103F800083250000FFFF0000FCFF0000F0B587B0B4
:103F900016460546041D50040595029440D401912F
:103FA000C805C00E00D189E0052080033146814359
:103FB000039100200690824C82480068042800D2B9
:103FC00088E0049600201FF03BFF80B2451D2F467D
:103FD0007D480740606939461CF0E4FD064660698B
:103FE000864204D008200699014306916661002E9E
:103FF00069D0A908F08935461035281819F0AAFEAD
:10400000F0892918E279CA70C019F0810420069954
:1040100001430691059D686B25F058FD039ECBE793
:1040200004962E463036F94C21F076FE039025F0AA
:1040300017F96F6B7969B869009121600002F54941
:104040000860F548808DF64CE08120F04EFFF24983
:10405000888600200190EE4908830697788AED490A
:10406000888010206071688821F016FA0446307844
:1040700017F00CFD29468227002822D00546084665
:104080003130007829461EF091FD002800D0AFE0C5
:10409000032C00D0ABE00698007C41424141284609
:1040A00003F07EF81FF084FED948019AC286B0560C
:1040B000C1B2402900D2CDE01146CDE000200690EB
:1040C00011E00D4695E085206071D848012101601E
:1040D000059D049EA079002804D0A86BD149C96829
:1040E00017F006FD029C0198800431D50496CC4E51
:1040F0007089CF494968411A4220375A0391B94221
:1041000025D24420345A686B21F04EFE002810D08E
:10411000022101728189B26B904202D10020B0630A
:10412000F063481DC34908403F1A641E0398B84213
:10413000E9D3039887420DD1002C0BD4383603986D
:104140007081B481102006990143029C09E0049E0D
:1041500006990AE084207071B44801210160029C34
:104160000699B448001D049E06437006C70F0F430E
:104170000120C503681C019901422FD0032000BF14
:1041800000BFA44880880599496B48820224A4484E
:10419000407910281CD1019828409F48008815D1EB
:1041A000411E062900D997E01320C04679440979B9
:1041B00049008F440D03939191959700142007E0D7
:1041C00068610020CC110840FCFF01001FF032F8AC
:1041D0002743029C2178000208182080B807059D1B
:1041E00014D5A86B8F49C96817F082FC0EE02746EA
:1041F000059D049EF8B20F2801D8002000E00120A0
:10420000029C21783A0289182180470060780002D8
:1042100003210902884212D1F00305D5686B25F00D
:1042200055FC0120000486438248001D064206D04A
:10423000686B7B4A38320023D9430AF071FEB80715
:1042400005D520F0E3FA23F0C1FF23F029F8384622
:1042500007B0F0BD402211437F240028059D049E35
:1042600001D4084600E020406B4948866C49097932
:10427000002904D000060099484068490860FF20E2
:10428000644988822846039919F0E2FD07460F2801
:10429000B0D8A86B0025002829465D4B45D0614960
:1042A000C96819621C820021417084700278D207AB
:1042B0001CD1584AD186118751879187D18719809F
:1042C00059809980D980198159819981D981017545
:1042D0008160C160016124E0102079E7152077E753
:1042E000412075E7022014F0B1FF71E7017A494AD5
:1042F000D186417A1187817A5187C17A9187017B72
:10430000D187417B1980817B5980C17B9980017C59
:10431000D980417C1981817C5981C17C9981017D41
:10432000D98100780221014049083D4881710298F5
:1043300000780128284604D13A48C0680599096ADE
:10434000081A019021F084F920F076FA344F388170
:104350007D610598406B25F0B9FB012622F0AAF992
:1043600078810698017C00292B4604D0428A1821C6
:1043700011404B424B413704294C22463832A56349
:10438000E563167255819581022103920AF0C8FDFA
:10439000A2792148808D2449002A02D08031084624
:1043A00002E04007400E4840059D0499B94304913E
:1043B00024F0CCFA0698007C002806D0698E01987B
:1043C0004018002804DC132703E0042410490DE002
:1043D0000327049E002902D0012800DA0AE70029F9
:1043E00000D108460A494882032400260E8724F09B
:1043F000D5F9022000BF00BF0C4804600023D94358
:104400000698039A0AF08CFD0327F2E64014084050
:104410007C2009403C200940062009404014084007
:1044200068610020E067002071A1000030100840A2
:10443000CC110840FCFF0100F0B595B024F0DEFC83
:10444000FF2800D1F0E10446F848456824F0D6FC86
:104450007B2291004143681871218900405CC007AC
:1044600000D0E1E10B92E0B225F050F80646074695
:10447000FF202030315C012903D1301841783846C3
:10448000D0E10F20400130180F90DB2040003018A1
:1044900012909F243546763525F06BFBA87C0228C8
:1044A00014D10F98808800070ED5B979788E42080C
:1044B000BB8EF88E0009009000201BF0ADFC0F9A17
:1044C00090881821884390800020A87403954B2180
:1044D00091226000334696330D93129B1B78022B7A
:1044E00002D10023129C23708900550034183046F5
:1044F0002E3005900D98007802280BD100201491E1
:104500000D990870B87931466231059A127B1DF019
:1045100021F81499139777180A9670190C90218B2B
:10452000002902D0A07D0FF0D3F90720049025F0D8
:1045300021FB139A50891081BD4E717C707B1190C4
:104540004318F07B14901818B37BC018357C08957D
:1045500040191090B748056892793C200790029264
:10456000504328183025405D0690B88809914018BE
:10457000B880F07CFD882818F880307D3D892818A7
:1045800038817889119A80187881B8890E93C0187B
:10459000089BB881F88914994018F881388AC018A6
:1045A0003882B07C258828182080707A6588281881
:1045B0006080F07AA5882818A080B07AE58828184D
:1045C000E080307B658928186081307AA5892818B9
:1045D000A0810C9A9088401C9080108810994018F7
:1045E00010805088119C001950803D68002D10D01B
:1045F0002146069840002A182B5A109C1B192B5252
:104600004A20135A59181152B07B0E90F07B149027
:10461000337C099800280A9D27D10E98002824D1C0
:104620001498002821D1002B1FD10020139CE08377
:104630000F9E3068B188049A11400127FA070240A2
:10464000501803D0002102981BF0E0F8784B587BFB
:1046500000281BD0207C002801D0E089A081207F89
:10466000012830D1608CE0832DE000271298078468
:104670000F9E3068C10F139C47D0B1884A07920F34
:104680003AD0002102981BF0C1F83EE00C99C8888E
:10469000401CC880207C0227002814D0606940009C
:1046A00005990978644A4A4380180B990901401812
:1046B000149060490968A2793846079F7A430746F3
:1046C0008918149848862089A189884204D0401A04
:1046D00025D95A49884222DCB088800606D40C9835
:1046E0000088002800D19BE008219AE0A0793E21B3
:1046F00025F074F9FD2194E0CAB2521C0323134043
:10470000049A914359183060B1802089E1890818D2
:10471000A081207F0128464B01D1608CE0832B20B3
:10472000C0002918587A00280FD00120207703985C
:104730000078002809D10398807C002805D10D98C5
:104740000078002801D1608CE083087900280BD024
:10475000022804D1987B002801D1002003E0187DB5
:10476000002801D002200871587800280FD058681E
:104770002168C8602F480168A079079A42438918C8
:1047800000224A86B188012212020A4311E0294818
:104790000268A079079B4343D218538E0B60244BC9
:1047A000116A2268D1600021E1832177B188244A0F
:1047B0000A40B280743599787F2900D1812129700F
:1047C000812901D025F0D6F8204624F0DBFE01280F
:1047D0002AD000252046294621F023F920462946E3
:1047E0001CF0D7FD24F0F6FF25F0E4F8204625F074
:1047F000B2F924F0CBFE1348103016F033FA3846E5
:10480000109922460DF050FD022F00D0257400F0C3
:104810000DFA25F0E5F8002806D006F037FE03E093
:104820003E2120461EF021FD15B0F0BD806B00201A
:104830009C6900207C7A0020C4090000AA100000B6
:10484000FFFE0000A8760020F0B591B005460024D8
:1048500010940F941E20002D00D1CCE109902F6EF2
:104860000FA910AA28460CF0E1FB072801D1072068
:10487000C1E10D942C462934686E132140567F28DF
:1048800004D10021204621F035FA09E020700021F2
:1048900023F07CF8C0B224F03FFC002800D1D8E01F
:1048A00028465D3006903846C03007903846803044
:1048B0000C903846653008903E4630360E953D1DCA
:1048C000CE4838600B940D9CAC702C80FC71CC48A9
:1048D000B86038460C30242124F02CFB07203070BF
:1048E000701C0F2124F026FB0B980057214623F063
:1048F0004DF870700E98416E497A31702B88012204
:104900001343FE2104918B432B800A92FA71109974
:1049100039623546B4700646394624F067FE38469B
:10492000403039466831B863F9632A21019024F098
:1049300001FB7F2008994871FC663C677C670B9CF3
:10494000386A31463061AF48007806990870AE4841
:104950000078002812D0607E0499084002280DD10A
:10496000AA4E30680D3023F069FA002806D10E985F
:1049700030303168C91D062223F084F9607E411E63
:104980008841029529463431039134230593E95C2B
:10499000FD220A4040001018E854384658300E995D
:1049A000303106919A4B06252A4698470C9C0D9E5D
:1049B00026709848E0800A98208138468C30069905
:1049C0002A46934B9847E5723C202654079E91480F
:1049D00070800A98B0800598029A105C40014024CB
:1049E0002040001DB0710597C837384606990E9FC4
:1049F0002A46874B98470695F571B87B012801D068
:104A0000042828D1039E3078400120400B9CA17ED1
:104A1000C9014018401C0C9988720C20C872059876
:104A200092303D463C35062729463A4623F02AF97E
:104A3000A07E31780A9A1040049A1140081830700C
:104A4000059E30465E3029463A460C9C23F01AF902
:104A50003DE01220CFE00B94B86E0028059E0C9C20
:104A600010D0C11C0A78497809028A180AD0411D61
:104A70003046923022F0DEFFB86EC0782246E17AEE
:104A80000818E072F86E00280D9B11D0C11C0A783E
:104A9000497809028A180BD0411D3046CE3022F0E9
:104AA000C9FF0D9BF86EC078079AD1790818D071AC
:104AB000B87B0228069900D01946032800D10221AC
:104AC0000398007840010B9A10404018A0723146BC
:104AD00078313546B4352246E07A801DA080079BA8
:104AE000D879801D18804C488078400606D5A07A79
:104AF00020221043A07298791043987137464837A6
:104B0000384622F0F3FF3846294622F0EFFF3546BB
:104B1000503521F041FB0146284622F0B7FF0E9B9D
:104B2000186FC17800790002411802D03B48484311
:104B300000E03B48F0623B48002702243761746183
:104B4000B061586E807C089D297803220240FC20C9
:104B5000084080182870586E807C002803D12A48AD
:104B60000078012817D124F009FC054624F00AFC3E
:104B7000014628461EF0F2FE002809983BD1089A0B
:104B800010781821014311701F48007801281FD1A7
:104B90000198056028E0022020F076FA002824D051
:104BA000044618F04FFD00281FD1089A1078042100
:104BB000014311702079617909020818A17909046B
:104BC000E279120651180818001F019908600CE0DC
:104BD0000E98406E807C04990140022901D1019910
:104BE0000D602043032800D175640F98002801D080
:104BF0000D498180384611B0F0BDC046011000005B
:104C000091000000047B0020886B0020406C002095
:104C1000857C0200030200002A6A0020409C0000FC
:104C200000204E00C1A70100AC0D0000F0B589B016
:104C300024F0E4F80446FF2802D1002022F022FBF1
:104C4000E0B224F063FC04461B2000012318205628
:104C50000028079306D57F2108401870204613F0DE
:104C6000C7FA079B2246883221462E31A06E006883
:104C70000068002802D00020E08311E04820085C92
:104C800000280DD1107800280AD1907B002807D188
:104C90009879002804D1207F012801D1608CEBE7AE
:104CA00008920091DD272B2006902189E08B04914A
:104CB0004E1C35186581204621F014FA002803D1D6
:104CC000C1480078012803D10020E0836681354681
:104CD0007E000698C0000590089F387801280BD107
:104CE0007A88A9B204981FF0FBF9002804D023F0B9
:104CF00069FF2DD07A8821E0B87B01280BD120896B
:104D000061893A8A1FF0ECF9002804D023F05AFF99
:104D10001ED03A8A12E0079B9879012818D1208981
:104D200061891A891FF0DCF9079B002810D062897D
:104D30002189481C80B282420AD01A89824207D057
:104D4000501E608180B224F0B2FD401EE083079BBC
:104D5000A51905982618987900210291012814D1E7
:104D600018892189491C89B288420ED820461F46DD
:104D700024F0CDFE6A782A700220B871089FA179CC
:104D800000200292134615F08DF83079002804D0E7
:104D90000020E0832089401C608103963878012838
:104DA000069510D1788821894A1C92B290420AD186
:104DB000608124F07CFD618E4143F8880E18204606
:104DC00011F078FA00E0668E0F21254620357F48E5
:104DD000E28B0592571C774302467A432668F068B7
:104DE000019210180790F06079483822825C002AFE
:104DF00006D0784A5278002A04D0774800220280F0
:104E0000608A0EE00491744A13885A1C72490A8021
:104E1000002B01D0608A03E0408F039AD2881018DB
:104E20000499784349010491192109011CF0B2FC4D
:104E3000401C6061A76105992970684B1968A279C7
:104E40003C256A4389180A6A3261079A101A086277
:104E5000B06008798880A08A1A68A67929467143CB
:104E60000792521811463231538E4000181850865E
:104E7000089A1278022A05D1009A1278534B5A43A5
:104E800010180880049AA3182027524A5278002A42
:104E9000089305D09988394210D13146079A1DE010
:104EA000029A042A03D1E12212018018088098880E
:104EB000384201D000200880069F2BE000213046B8
:104EC0001E4624F08BFDB088B843B080434802688A
:104ED000A179284648431018408E0E466943079230
:104EE00051180A6A3E4BD2180A6223689A60019FE1
:104EF000D21B1A617B22120182184A86069F3B78D8
:104F0000042B04D132315722920182180A8090B2C8
:104F100003990860618E3348027C437C1B029A1817
:104F2000837C1B04C07C0006C018801800684843BE
:104F300064211CF02FFC254941432948401890303A
:104F40006E4307998919C862FF2006302018042192
:104F5000062222F00CFB00280CD023F067FF41B2A0
:104F60001E4E3268A3796B43D318491001220240C8
:104F7000184609E0194E3068A1796943401808992C
:104F800089680922895600221DF0D8FD3978002948
:104F900003D1002022F076F93978A0793A7915F01A
:104FA000B1FC204624F008FE3068A1794D43401939
:104FB000216848600C4807210170204616F0D2FA9B
:104FC000002009B0F0BDC046966C0020C409000066
:104FD000907500209C690020D27A00207C7A002005
:104FE000C0FAFFFFC4D40200876C0020F0B58BB07C
:104FF0000446016CC26A1DF0F9FCE16F4A1C904244
:1050000001D9352591E1002813D0206C8A0087183A
:105010000837891C384623F014FEA168384622F070
:10502000F7FE002807D0E66F711C884205D9C62517
:105030007BE1532579E16C2577E123786625022B06
:1050400000D272E1052B00D96FE10890216C0A684B
:10505000981E4342434101252A405A4080200A902D
:1050600022500898E06720463A460B4613F080F934
:1050700020784000001F294681400A982150216C69
:1050800020460A461EF01EFCE667E16C20460A95A3
:105090002A4622F0FFFE626EA06EE16CA36FE56F00
:1050A0000095A34DA847A26EE06E24F09EF8A06E76
:1050B000E26E24F09AF8216F226B20461DF096FCD8
:1050C000E56FA84201D93C252FE100280ED0606C85
:1050D000E26E216F24F0CEFB216F626B20461DF043
:1050E00085FCE56FA84203D965251EE1C3251CE1B7
:1050F000074600280ED0A06C216FA26E24F0BAFBE8
:10510000E16EE26820461DF071FCE56FAF4203D905
:105110005C250AE1562508E126468036A26EE16E3E
:10512000206F24F0A7FBE26C206D216FA36FE56F69
:10513000009500F085FFE06F421C09963260656DB6
:105140000026277824F021F809DA616C284623F03C
:10515000B1FC0998026890002D18761CF1E7A56D46
:10516000002624F012F806DAA16C284623F0A2FCEF
:1051700023F036FDF5E7E56D002624F006F806DAA3
:10518000E16C284623F096FC23F02AFDF5E7216C1C
:1051900008688007C20F089840010290401C0190E7
:1051A000002507952B460A9E02988642E8B26AD8E7
:1051B0000490069308920198801BB84200D33846A9
:1051C000099A1060204632461CF0F6FD4119C8B21B
:1051D0007B1E01252A469A409042059500DA00255B
:1051E0002B46BB4090420A9600DB48421818089AAA
:1051F0005049895C9600504A9219079F7B00D2184B
:10520000525D920051180006800D001F0422904349
:10521000081809990860204600F0F0FB680047492B
:1052200089190918049A895C039145498919081854
:10523000C75D079720780490811E42488019405C22
:105240000A9E36181420089A50433F4A1218052027
:1052500041435118069D4D5D216C720992008A5898
:105260001F233340DA40059B1A40039F7A40424394
:105270000A20089B5843354B18188018425D2B466E
:105280003D46049F90E7012810D107988000C01C7C
:10529000099E30602E4D2046A847012030602046F0
:1052A000A847022030602046A84727789925032F79
:1052B0003BD30020C0430890B91E01200A908840CB
:1052C000FE30099EC7B20A983060002F11D07A1CB8
:1052D0002046394605F0CAF80A9830602078801ECA
:1052E00008998140C94320463A4605F0BFF8781E28
:1052F000E8E72078801E089F39468140CA43002194
:1053000007912046134B98470A9830602078801EFA
:105310008740FA432046079F39460E4B98470A9A22
:105320003260204639460B4B984728460BB0F0BDFB
:105330004160000024DC020070D6020040D602006A
:1053400088D6020058D60200C4C50200F8CD02007B
:10535000FD5900006DA400007FB51546D14A8218A2
:105360001D2A00D934E152007A44928852009744B1
:105370001D002F01C5005000BA0060009A00DE0039
:105380002F01E4002F012F01230115012F014500FA
:10539000A50078003E00EF000001440139012F0113
:1053A00028002F018E004D0133006A0018240129C6
:1053B00000D069E12878022800D965E1BA49C870AF
:1053C00061E11824012900D05EE1002D00D15BE1EC
:1053D0002878B549087056E11824012900D053E116
:1053E0002878012800D94FE1AF4908754BE1012920
:1053F00000D0DFE0287822F085FB44E11824012961
:1054000000D041E12878042800D93DE1A6498874FC
:1054100039E11824012900D036E12878042800D980
:1054200032E1A1490871032800D02CE100244C711D
:1054300078E0102900D0BDE09B4854301022294666
:1054400022F020FC1FE11824012900D01CE1002DCE
:1054500000D119E12878012800D915E19249887016
:1054600011E11824012900D00EE12878022800D982
:105470000AE1002800D107E18B49C873022800D057
:105480000BE110200874012023F0A2FDFBE00029AD
:1054900000D08FE023F03AFF002800D1E0E08248FE
:1054A0000121C174EFE01824012900D0ECE0287834
:1054B000012800D9E8E07C490872E4E0072979D1A5
:1054C000691C01AE0622304622F0F4FB2978002444
:1054D000009403AA3046234623F04FFB002800D156
:1054E000A7E03424D0E01824012900D0CCE02878AB
:1054F000012800D9C8E06C49C871C4E0182401290A
:1055000000D0C1E02878012800D9BDE06649012813
:1055100003D10A79032A00D184E04871002800D021
:10552000B1E000248C71204623F0C0F9ACE00129E1
:1055300040D128785C494873A5E000293AD123F08E
:10554000E5FE002800D192E05748012181739AE0DE
:10555000554E707A1824002800D095E0602978D143
:10556000002D76D051486022294622F08BFB012085
:1055700074E01824012900D086E02878012800D999
:1055800082E049494872002400287DD001208872B9
:1055900046484749602222F075FB75E0012909D190
:1055A00041494A7C287848740024002A6CD101289B
:1055B00063D069E0182467E01824012964D13A48CF
:1055C000C27B2978022A2FD110295DD110212EE02B
:1055D00002240E2858D8022956D129881BF01AFF18
:1055E000044651E0002401294ED1287801284BD8E7
:1055F0002D49C87223F052F946E01824012943D1FD
:105600002878012840D8284908733CE0182401294B
:105610003AD12878012837D82349012830D14A794E
:10562000002A2DD102242FE0CA1F0A2A2CD201748D
:1056300029E01D4D287B002804D123F067FE0028B7
:1056400002D0287B012822D103A8007808F00EFCA4
:105650000FE0012918D1002D16D02878B07212E081
:105660000EF08EFF0446502020F02EF80CE020F0C3
:1056700097FC0446502020F027F819F001FA03E0C7
:10568000887123F013F90024204604B070BD686AC5
:1056900003A9097801224254F6E70024204623F0AA
:1056A00097FCF1E700FCFFFF3073002094730020AB
:1056B00004C70200F0B58BB00C4623F08FF9054605
:1056C0002046294624F028FA002D01D00020A860A9
:1056D000012660003CD5B507681C23F0A7FF02D166
:1056E00024F036FAB4432846403023F09FFF03D11C
:1056F00024F02AFA402084432846203023F096FFE5
:1057000003D124F023FA20208443281D23F08EFFA8
:1057100003D124F021FA04208443A81C23F086FF3F
:1057200003D124F01AFA022084432846083023F0DB
:105730007DFF03D124F00DFA082084432846103061
:1057400023F074FF03D124F002FA10208443AC4309
:10575000E00234D53705B81C23F068FF03D124F0EC
:1057600074F802208443781C23F060FF02D124F0F7
:1057700060F8B4433846083023F058FF03D124F0D2
:1057800070F808208443381D23F050FF16D1032001
:1057900024F0E2F800280FD00246883015469435F0
:1057A00001680A91526AC38C018DC06B009101900F
:1057B00028460A9923F0E3FC04208443BC43204696
:1057C00023F0C0FE044623F009F90546200403D562
:1057D00023F0E4FEF0038443600328D5002D10D0AD
:1057E0002888402819D0310288420DD080281CD149
:1057F00077480078082801D024F064F924F096F95D
:1058000013E024F05FF910E0714800780E2801D011
:1058100024F058F924F094F907E06D48007807283F
:1058200001D024F04FF923F099FEB00484436001C5
:1058300003D523F0ABFEB0068443200703D524F044
:105840009CF908208443E00612D562480890FF20A6
:10585000002100910191029103910491059106911B
:10586000079002200A460B4608F0FEFE10208443F3
:10587000A00603D524F083F920208443200303D518
:1058800024F04FF9F0048443A00303D524F06EF90B
:1058900070048443200103D523F0D0FDF006844337
:1058A000E00003D524F03BF930078443E0030AD538
:1058B00023F050FE012802D123F0F8FD01E023F08F
:1058C00031FE30048443A00003D524F029F9700789
:1058D0008443600703D524F048F90420844320065C
:1058E00003D524F048F980208443A00703D524F091
:1058F0003BF90220844320020CD535480078052866
:1059000004D0112804D123F0F1FD01E024F019F9AD
:10591000F0058443204624F02BF90446800416D574
:1059200023F0A4FD2C4822F079FF2C4908601BF0DD
:10593000F1FD002804D02A48026803200146904760
:1059400028481DF0C3F808F031F870038443600262
:1059500003D505F09BFDB0058443A00503D522F0D7
:1059600067FC70028443204D600402D4681C04402C
:1059700005E0812019F0E0FB112080028443E0075C
:1059800005D01A480068002800D080472C40E00469
:105990001BD5174D28680D3022F050FA002804D18D
:1059A0002868C11D0D3018F0ABF923F0DFFD114858
:1059B000007811494A68350329461BF069FA002826
:1059C00002D08E2019F0B8FBAC4320460BB0F0BDDE
:1059D000876C0020FFFF0000FFF90000446C0020EE
:1059E000647A0020A86B0020FEFBFFFF4C6C0020B7
:1059F000406C0020686C0020886B0020F0B589B0F6
:105A0000044680202158C8080D460391E26F511CBE
:105A10004143E06DC9B28F00C019616F636C06AE7F
:105A20000BC6A807060F05A88159206EA36F009228
:105A3000BB4D0A46A847606E23F0C8FB05A88059F5
:105A4000A16CA36FE26F0092B64D0A46A847E06EC4
:105A5000216FA26C636E06920791089305A989597C
:105A6000E26DD2190497236EE56C069207930895B0
:105A700005AA23F0CDFBAA4DA847606EE16EE26C4B
:105A800006AB07C305A88059E26F521C23F012F839
:105A9000E06E216F06900791089005A88059216E4D
:105AA00023F078FB9F4DA847206FA16E06900790CA
:105AB000089105A88059A16DC919226E636E06ADC3
:105AC0000EC505A98959A26CE36C656F069307950D
:105AD000089205AA23F09CFB914DA847606F216EA8
