:100000000090002055870200F9950200F995020042
:10001000F9950200F9950200F9950200F9950200A0
:10002000F9950200F9950200F9950200EF98020097
:10003000F9950200F9950200610E0200DD5F0200F1
:10004000F9950200F9950200F9950200F995020070
:10005000F9950200F9950200F9950200F995020060
:10006000F9950200F9950200F9950200F995020050
:10007000F9950200F9950200F9950200F995020040
:0C008000F9950200F9950200F9950200C4
:10009000F0B591B00791044606463036011D0125A2
:1000A000069250040E9408910995019607D4088889
:1000B00089780904401800260496039669E125F022
:1000C000BDFC039028F056FF3078304C4C21605432
:1000D0002A4625464C35014611408207D20F511859
:1000E0004007C00F0F1820341421204628F0BEFD11
:1000F000277500266675A675E6750E9C2448254969
:100100000160254825490860254FB88D1F49C881E1
:1001100024F069FDB8862148868010200F901B4985
:100120000F464871EE70AE80608825F047F80328CE
:100130003DD124F02BFA388100267E61A06B10306F
:1001400025F030FD26F048F97881A16B088B134F1C
:10015000F883488B3884888B78842420085C800757
:10016000C00F388388680327002867D0827B121865
:10017000D37B0F221A40072A14D8C0467A4412793A
:10018000520097442B190F0F0F0F3239686100206E
:1001900040140840D6BE898E005555553C20094074
:1001A000062009404D200026F34A165422E001465D
:1001B0000496089D0746DDE008462430CA8BEF4BC5
:1001C0001A860A8C5A86498C9986007809990840C3
:1001D00098834D20E84A115405260BE04D200999DB
:1001E000E54A11540326374604E04D200999E24AB6
:1001F00011540226089D23E000266E700999E970CB
:10020000817B0918497C890617D000210E460FF022
:1002100077F83520D84A105C0028089D10D06088F7
:10022000032738401146213189780904490D884255
:1002300006D050200999115402E08427089DCE4A27
:100240000D964F26905D00280BD0104600233832C3
:100250008363C363137253819381A06B08300121C0
:1002600004E0A06B08300221002213460EF0B2FD1C
:10027000002100282DD00C96109102220D9E3146AF
:100280000B9211404A424A41431E581E8341134378
:100290000493012B21D1D64806800022B74E7281EB
:1002A000A36B2525585D03240440F482585D400863
:1002B00004263040CF4C2085585DC006C00F6085B5
:1002C00000290A960CD10020C94988810E9CAA4EAB
:1002D0001BE0832704910E464CE08327A64E33E0B3
:1002E000586825331B78D90707D1C3495A073340CB
:1002F000D41721405A00204001E0C049491C0E9CFF
:100300009D4EBB4B29F05CF8B9490D98C00703D14D
:1003100000200882089D17E0A26B1068525D9307C9
:100320000AD4B54D0A9B13405207D1170D405A000D
:100330002B460840AE4902E0B04A531C0022089DFB
:100340000B82A23122F0EFFD0C98305C002810D017
:10035000A06B083025F0BAFB002801D1842171710F
:100360000B990172B16B884201D10020B0630F9EDE
:1003700000E0109E2888A978090440183902FF225D
:1003800012029043401828800F2F01D902210E43FA
:10039000099DFF210902014003200D9000028142C6
:1003A00061D1A8040590964B29020846B030079AFF
:1003B000024202915BD0104608400B90069D2846F1
:1003C00018400A906C4F8F48C06A04285BD310967F
:1003D00000200C9023F0DEFB80B2441D21460D98D6
:1003E000814378690F9120F08FFA0646786986423A
:1003F00004D008201099014310917E61002E3AD05C
:10040000A108F0893518103528461DF0A1FB0B987E
:100410000028594F16D04F20385C002812D0686849
:100420000F21090401400D98000481420AD1284699
:1004300024F046F9C00602D535200C9939545120D4
:1004400009993954F0893118FA79CA740F9940180A
:10045000F0810420109E06430E9CA06B103025F006
:10046000A1FB0A9DAFE7B00700D529E12EE1109668
:10047000069E354611E085203F4F78716248099904
:1004800001600E9C109E1096B879002804D0E06B95
:100490005E49C96820F0CEFF069E059806406806B2
:1004A0002946C50F0F4608460299084003D0324935
:1004B0004E2201238B54B30C10990D430799C907A1
:1004C00012D0059939400FD14A490988042920D111
:1004D0002A48406D28498A69801A60634020487123
:1004E000032000BF00BF4FE00798000401D4049927
:1004F00057E021484079102803D13E48008822F077
:100500002DFD28F0C1F9424A28F034F8002319469D
:1005100047E0BA0529D41093CB1F5A425A41164CD2
:100520004E23E35C5E1EB341002829D11A4327D134
:10053000022903D13520205C002825D10120049018
:100540004C20205C002800D1AEE12E48052101603E
:10055000A07900280E9C04D0E06B2C49C96820F0DB
:1005600069FF23F0FDFF0023C1E7032018F06EFDB3
:100570000149487108E0C046686100203C200940FC
:10058000022018F063FD60712248407928F07CF960
:100590001F4A27F0EFFF032000BF00BF00231946CA
:1005A0000E9CF803109307D5A06B10300E4625F073
:1005B000F9FA3146124807402646313600295CD008
:1005C0000F95144A4C200C901056002828D47578AA
:1005D000052D00D9002507210840801E052829D8AF
:1005E0007844007940008744191723211D27C0460D
:1005F00096200940062009400A8000000A80FFFF7B
:10060000FFFFFEFFA011084030100840986700204F
:10061000FF00FF0068610020E8070BD026250DE0F1
:1006200005460BE001200540263507E0E80701D02C
:10063000272503E0252501E06D0825352020105CE5
:10064000918922F0B7F90A90E8B20B901BF01EF9DD
:10065000002803D028F0C0FE00283AD0089A28F0DD
:1006600019FCEE4908404121490201431180000C68
:10067000907002200F9D05430E9C1098002815D005
:10068000FC482127C15D3F20084010901BF0FEF878
:10069000002803D028F0A0FE002830D0089A28F0C7
:1006A000F9FBF34927F0E3FD05430E9CA80701D4AD
:1006B0002E460BE0E06BF049C96820F0BBFE2E46E9
:1006C00023F04EFF27F014FC26F07CFC304611B0DE
:1006D000F0BD09988003079001212046069106F09D
:1006E0005FFD23F00FFA079807422DD1B07800285C
:1006F00000D19FE0E14827F07FF804464BE0204618
:10070000099906F04DFD23F0FDF90E98806B816884
:100710000020002953D00B910C900F955026D54CFA
:10072000A55D2020205CA18922F044F90146002D1E
:1007300057D002984118E0310A91CF48008D24F03B
:100740003DFD0020A0554DE00E9803991DF054FA90
:1007500004460F2838D84F20C64A105C00280AD01B
:100760003520105C002806D00C9828F02FFA0028BD
:1007700001D17D20C4430E98C06BBF4FF9681DF0B6
:10078000DBFFBC4A90714E2000211154387F800756
:1007900001D027F057FC089FE0B21028069B14D226
:1007A000B749002088836CB20B99402901D24020C0
:1007B0002843B04AB34F002C5AD405465AE00A9059
:1007C0000E9CAC4B0646FDE0089F3888B9780904BA
:1007D00040182102A64A104001433980000CB8702D
:1007E00047E70A910F9D0B98817B0A18D17B0F2652
:1007F0003140072914D1547C002529460EF080FD94
:10080000A009022800D1C4E00795012800D1AFE07B
:1008100000280F9D974B00D0CDE04D200799CEE0EA
:10082000089A28F037FB924927F021FD05430E9CDA
:10083000904BC6E04F208F49085C0028089F67D086
:100840003520085C002863D00A9828F05DFB601A08
:1008500080009721C9004018703026F0CDFF044673
:100860000C98844A28F0B2F9002895D18224ACE78C
:100870007F200540E8B278861079002804D0280649
:1008800081494140814801604D20105C00283AD0E8
:10089000154624F06FFDAA79B88D7D49002A0F9D79
:1008A0003AD0803108463AE03520205C002800D15B
:1008B0006AE62120205C2646213671780902081854
:1008C000B1780904401873490140802900D05BE6E3
:1008D00071480721016023F043FE5020215C002075
:1008E000002900D1F4E1B1780904490D0E9C628819
:1008F000042313400B4360490B850121C9030D43B9
:100900000146109B4DE6D803401C0F9D1F4607E093
:1009100028F009F804463FE78007800E4840069F0C
:1009200027F0A8FEF148C78327F0CCFD022000BFC6
:1009300000BFF14805210160002C14D40B98253824
:100940008740E74A0C99505CB8435054B17800296D
:100950000E9C00D191E6002800D08EE60198007828
:100960000C99505489E60020DD490C9A885483E69E
:100970003520DB4B185C00280F9D00D133E14D2062
:1009800007991954089A28F085FADC4927F0EAFDFE
:100990000FE03520D24B185C002800D139E14D2002
:1009A00000211954089A28F075FAD44927F0DAFD85
:1009B0000F9D054304E04D20079919543520195423
:1009C0000E9C0C9EA06B08301A463832012133462B
:1009D0000EF000FA074633463246002F0CD0781E40
:1009E000414241410E4207D10B92411E88410122F2
:1009F00019465140014313D12846089B19889A781B
:100A000012048918BD4A1140832212020A431A8037
:100A1000090C99700225054348E6C046FF00FF0017
:100A2000079309920C960F959720AD4EC5000A9832
:100A30004019703028F068FA601A84005120305C48
:100A400000282BD00A9535464C35E879B1890591B7
:100A500021F0B0FF06900C20059921F0ABFF0A9918
:100A60006118069A89180C180020687117E0C046B2
:100A7000FF00FF00686100209867002088130000D5
:100A80009620094006200940D6BE898E40140840B1
:100A90003181000080FF1F00A0110840083420466B
:100AA00026F0AAFE04463520305C00280ED0202017
:100AB000305CB18921F07EFF4C21715C4C3632797B
:100AC00010F038F8002801D17D20C4430A940B9817
:100AD0008649824D08808048042444810E99896BA0
:100AE00025268A5D0D9B1A40C282885D4008204001
:100AF0002885885DC006C00F68854820784A105C4C
:100B00006A8DA2438000104368850C9800280CD0A1
:100B1000486825310A78D1070BD17549530722401F
:100B2000DB1719401840520006E000206F4B9881F7
:100B300006E07049491C00226C4B28F041FC6B4BCD
:100B4000079800280DD00E98816B08688A5D910780
:100B50000ED4674914405207D2171140104062006A
:100B600009E0002018825E4E1099099A0A9C0CE058
:100B70006049491C00225A4E0A9C19821946A2312A
:100B800022F0D1F9594B1099099AE0B210280ED3EE
:100B9000089A10889178090440182102574B184090
:100BA00001431180000C907002200F9D7CE5002411
:100BB0009C834031494841863079002804D008069A
:100BC00049494140474801604D20305C002858D0D9
:100BD00024F0D0FBB2794148808D4949002A53D096
:100BE0008031084653E04D20012119540B980068CC
:100BF00000286AD00E9CA06B08300F461A46383287
:100C00000221079E33460EF0E5F83A460746099B57
:100C1000E3E64D20012119540B980468002C0F9D28
:100C200053D0A07B0019C17B314007290CD1407CF7
:100C30003F2809D80B99887B0818007C0B30FC21D1
:100C4000014020460EF05CFB0E98806B0830244A71
:100C50003832022726460024394623460EF0BAF8D9
:100C60003A4623460746B07B3018007C1C494C317D
:100C700088710B9CA07B20180E9C007CC871099E7B
:100C8000ABE6D003401C02E08007800E48400F9D79
:100C900027F0F0FC27F016FC14480999C183164888
:100CA000052101600E98806B083024F00FFF0028AA
:100CB00001D18421717102210172B16B884200D18E
:100CC000B4637F1EEED11020EEE428460E9C94E61D
:100CD000049B014664E4C0463C20094006200940CC
:100CE0006861002040140840D6BE898E96200940D5
:100CF0000A8000000A80FFFF30100840FF00FF005C
:100D000031810000F0B597B00F4605464C1C0E78B7
:100D10003046214626F0D4F9002806D03046294630
:100D2000224628F0E3FC17B0F0BD12940F97232061
:100D3000C000281811902A2E2946324600D97AE29E
:100D4000DD20400008180E906720800008180D90E4
:100D5000572080000B18FF200630081810900E4610
:100D6000F03608468C300C9008468A300B900D46C1
:100D700077350F4676370C4667349000139102A101
:100D8000085813998746C04675100000ED10000002
:100D900011100000A11100003712000037120000EE
:100DA000B9110000171000001F1100004D110000C4
:100DB00015120000BF110000770F0000371200006D
:100DC000371200005710000037120000E90F000032
:100DD000670F00009B110000510E0000510E000033
:100DE000C5110000371200001F0F0000371200006D
:100DF00037120000371200003F0E000037120000CB
:100E000037120000371200003712000037120000BE
:100E100037120000350E0000350E0000350E0000C0
:100E2000371200003712000037120000371200009E
:100E30003F0E00000846129928F004FD73E70D46A6
:100E400081480079800700D5C9E011984272E9E332
:100E50001292142A03D16079002800D170E10A931C
:100E60000F9B5878997809020918D8781A791202D4
:100E7000161858799A7912021218D8791B7A1B021F
:100E80001818129B152B00D0D9E189B21B2311939E
:100E90001B290F4600D8119F2923DD001B292B4653
:100EA00000D33346FB24FB2F00D32746674EFB2994
:100EB000314600D8194689B2CB08292B119B00D3A3
:100EC0003B46A9420E4600D82E46604FB942214605
:100ED00000D819465D4B9E4200D35C4E97B21B2F43
:100EE0003A4600D8119A1B2F2B4600D30346FB2A03
:100EF00000D32246FB2F554C204600D8184683B21B
:100F0000D80829280E9F00D31192AB42184600D86A
:100F10002846A34200D80BE2FB22204609E20A93AE
:100F20000D9B0E9E0F980F4641788078814209D123
:100F300007200840129A107000D109E3491E0142AF
:100F400000D14DE318211E24384622461FF0BCF97B
:100F5000B97900222046134618F0A4FEB07840214B
:100F60000143B170DFE60D4610980078C00600D549
:100F700082E1122054E326460D461099087C012890
:100F80000C4616D00F98811C4078119A10708D2055
:100F900040002F4628180224224626F0E2F9014696
:100FA0004720800028182246109C26F0DAF90120FC
:100FB00020747079002800D1C2E0A07C002800D005
:100FC000B1E6617C002900D0ADE628460C2106F090
:100FD000D1FC002800D12DE30120A074A3E628460F
:100FE00012991EF0CAFB9EE61E460F9A08465178DB
:100FF000927828F00DF93878012800D03EE1287861
:1010000001460F39022900D321E2012070738AE6DC
:101010001298007895E01D460D9C0E9A1298007863
:101020000E380828109B00D97DE64000784480885F
:10103000400087440E00AB020D000D00A7020D001A
:10104000B3020D00B902C046E269002090420000E0
:1010500069E6032072E00E97109F12950A93887933
:101060000C4628F001FB0028204600D10AE10F21A0
:101070003A225AE112950A930F980C46811C407847
:101080000C9E3070B01CF54D02270F903A46A847D1
:101090000146301D10903A46A8470146B01D0E90FB
:1010A0003A46A8470146304608300D903A46A847D0
:1010B000014630780028274634460B9E14D0109AFB
:1010C0001288531E9BB2082B00D3082383420BD3F4
:1010D0000F9B1B88934207D8062A05D33546264620
:1010E000DF4CA24200D222E330202AE01E4608460E
:1010F000623005220D46129926F033F901460C9F05
:1011000038460C30022226F02CF9B8892989401A79
:1011100080B2D449884200D8BDE0282011E00846BA
:10112000129919F033FC6079002809D0092113982D
:1011300006F020FC002800D17CE202203075F2E5A8
:101140003D20119908720120C871ECE508460C4653
:1011500012991D4619F01AFC2A4602203075109883
:1011600040780007254602D4BF48D0865086BF4845
:101170004078800600D4D6E5908E1B280BD1108EC7
:101180001B2808D12920C000D18E814203D1518E65
:10119000814200D1C7E5142149E000201872C2E560
:1011A0000D4610980078C0077CD11A207073307BF0
:1011B0000D2101283BD1B0E00120B073B3E501203F
:1011C000F073B0E50D9E0E9A0D46109840780921F7
:1011D000084200D139E10F9B5878997801400720E7
:1011E000084058701746D1780140517000D1A2E1F3
:1011F000481E084200D1DDE1032900D9EEE1334663
:101200000220020600D12EE2084200D02EE2C0B237
:101210004008F6E70D460C98807B012800D081E05D
:101220000020207060713080012030730B2128462F
:101230001AF026FC77E511984272084629E08BB235
:101240001B2B0E9F14D3FB2B12D8B3B2DC08292C16
:101250000ED3874CA3420BD893B21B2B08D3FB2B86
:1012600006D82923DD0083B2AB4201D3A34260D963
:1012700014211E22139858E01321D4E1002025F0F8
:1012800093FE50E53978890700D5F3E00F221199D4
:101290004A720721C8E10121B9720020E883317048
:1012A000284697E100202070607128469C301190FC
:1012B00001200A9630742846B430684C08261299EA
:1012C0003246A04701462846BC300222A0470146CC
:1012D0002C46A4342F46AC37384632465F4B9847ED
:1012E00012903846314625F047F82E46A03604279E
:1012F000304612993A46594B98473046394625F0C0
:101300003BF8204627F095FD119827F08DFD0A98AF
:10131000007B0421012800D0C6E1F422284616F003
:1013200027FE00E514211E2228461EF0CDFFFAE418
:10133000119A0A9B5987DE871A87988780B25A8E3E
:10134000824200D302463878A9231B019A421446F0
:1013500000D81C46042800D014460D9FFD88FC8050
:1013600004280DD113981CF0C1FD0246B888131A49
:10137000581E8341BA800A9E718F0E9800780CE047
:101380000A9AD28EB3B29A4200D31A460D9FBB88F6
:10139000D31A5E1EB341BA800A9E651B6C1EA5411E
:1013A000B78E89B28F4200D30F461D430D9C218812
:1013B0007E1A711E8E4127800E990979012311939F
:1013C0001FF0B2FB874201D2208805E00E99087811
:1013D0000979A28828F0BEF90A993543E0820B8E7C
:1013E000088F834200D303466088191A4A1E914130
:1013F0000D9A0D4353808342139E03D9107D8021A3
:1014000001431175002D11D00A980386D5884586B1
:101410001188818614469288C2861298142800D0BA
:101420008BE0B07900951EF013FC03E012981428AD
:1014300000D087E01521304606F09CFA002800D045
:1014400071E4DE4800781199F7E01620E8E01628EC
:1014500000D068E40E9EB078012181E5637302003C
:10146000810C0000FE7F000048080000E2690020B7
:10147000904200000F9B587806909C78D878197994
:10148000090208180D9058799979090208180990ED
:10149000D879197A090208180890587A0790987A2A
:1014A0000590DD7A187B597B0902091814A8018080
:1014B000997BDA7B120251184180197C5A7C120206
:1014C00051188180997CDA7C12025118C180197DF3
:1014D0005A7D120251180181997DDA7D120251184C
:1014E0004181052027F078FC002800D191E02002FE
:1014F00006994618280205994218139D288914A9AF
:10150000069292B2089B9CB20094019007980290B8
:10151000039204910596B1B20D9882B2099886B2F1
:1015200028460F92334614F04CFE002800D1C0E04C
:101530000D9C1E266FE0387899E0217D0820084335
:10154000224600E0107D202101431175FFF7EBFBDF
:10155000287816281D4605D1B9793278002013461F
:1015600018F0A0FB0220A876307828760124747148
:101570002F883179AA8823461FF0D6FA87421BD2DA
:1015800028881EE000202872FFF7CDFB0120287379
:101590001878FD2101401970FFF7C5FB207D12214D
:1015A00001432175FFF7BFFB907812210143917031
:1015B000FFF7B9FB08465BE0287E3179AA8828F05E
:1015C000C9F80A9FE882B07840210143B1703C70AD
:1015D0001821139828F050F9FFF7A5FB042046E0E6
:1015E00070700F9AD17812791202511899833A8942
:1015F000891A89B2724A914200D98EE51D460121AD
:1016000099760428B1D138461CF070FCA880707817
:10161000ABE70D9C1A2638784007139D12D40F2093
:10162000119948720721284606F0A4F9002801D034
:10163000FFF779FB614800780121890312F03CF83B
:10164000FFF771FB0F21284632461EF03DFEA979B7
:10165000089880B20090A2B2099883B230461EF07A
:10166000D3FAFFF760FB08461E4601E01E4678707D
:10167000C1B2042904D128461CF038FCB080787827
:10168000C0B225F0DFF9307634883979B28828F095
:1016900061F8844201D2308804E0307E3979B28822
:1016A00028F058F8F0821721284615F0ABF8FFF71C
:1016B0003AFB119610940A9B059818820D9C5C8247
:1016C000099F9F820898D8820799197606995983AD
:1016D000149E1599169ADE6119625A620C9EB480A6
:1016E000F78030810220307000207080A88EC11DEC
:1016F0000B9A1180698E49080F9A8A4209D1119973
:10170000814206D1E88E00091099814201D1102151
:10171000CAE70E9800780128129933D108780F286B
:1017200030D1F12128461C461AF0AAF935E034469A
:101730002E4640002070580060805000A080208914
:10174000000120810222284625F00BFE28883989D5
:10175000401A80B21A49884200D9DEE40D98008808
:101760000E990988491C109A12884A4351008842F0
:1017700021D90120129948740021F9830A9A107026
:10178000384627E7887A002802D008781A280ED130
:10179000F12128461C4615F035F8A879218A628A7D
:1017A000A38AE48A009419F009FCFFF7BCFA0F2021
:1017B000C873F3213BE53B20C3E4C046206C002006
:1017C000FE7F0000F0B591B0002902D4002400F0A3
:1017D000FFFC0C46294F387817F0A0FD002801D1F6
:1017E00000F0F3FC05460078A2280D955FD0B028E4
:1017F00001D000F0E7FC0EA800210180204E7068A7
:10180000002808D127F08AF927F072FE70600028BE
:1018100001D100F0D2FC06943E4614360024182272
:10182000304621460B9226F058FD287901210C9173
:10183000811E162901D900F0B9FC401C05900796BD
:101840004900C0467944898849008F441B00AF0491
:10185000AF04AF04D400AF047100AF040C02AF04B6
:101860004302AF047700AF044C01AF04D901AF04C9
:10187000AF04AF04AE02AF047902C046B0740020DA
:101880000874002027F04AF9B8826888314624F0AD
:10189000A3FC002800D1F3E22889B98A884200D34A
:1018A0000846B88201200C90032000F06DFC687996
:1018B00065282ED10C370C97384627F0B9FF002841
:1018C00019D006460089B17A37460C373A4610F0EF
:1018D00025FA0546142801D0002D0CD10C9831466C
:1018E00026F056F8142D03D1B17A384626F0B2FD11
:1018F000304627F005FE0C9827F0F6FD00280D9DD8
:1019000007D0F1480078F1490870F14900220A70C7
:1019100001E0ED480078FF2801D100F053FC294692
:1019200024F0F0FA002801D000F04CFC00F04DFC4F
:1019300000210EAA28460AF037FF1EE3688824F02B
:101940005BFC0490401E0B90B88A00242246A989B3
:101950008A4200D3B1E280B20B99814200DCACE252
:10196000089226F098FF80B210A91EF0BDFE012754
:1019700000280C9700D1A9E201460A9468880990D2
:1019800010AA1288EB48436828790B9CA7B200265E
:10199000E94CA51C0095019602970390099806F062
:1019A000DFFC002800D08DE2A06900280D9D079E75
:1019B00009D168880F210023E04A15F091FBA0614E
:1019C000002800D1E5E2A18A62885318049FBB4237
:1019D00003D30B9A521A628092B24018D5494968D3
:1019E00025F0E2FF6088A18A0818A082089A521C9C
:1019F0000A9CA41CABE7688824F0FEFB26F069FF74
:101A000010AC009418F0DEF80546781F0A90F81F15
:101A1000C94F002480B20990B81C0890A1B2002DD3
:101A200000D11CE20A98884200DC18E20B910C9469
:101A30000D9F788810A90A88BE494B68397900241F
:101A4000089E00960194099E02960391294606F08D
:101A500087FC00281CD13A8AB7484088824217D1B7
:101A60007869B449496824F037FE0028B24F10D095
:101A7000B86900280AD10D98408807210023AF4A91
:101A800015F02EFBB861002800D12BE36C8900E033
:101A9000A94F0D98418910A802880FAB284615F070
:101AA00037F90546002C13D0B8690C9A511C0B9BD2
:101AB000C454200A1446BA69A31C89B25054002D9C
:101AC00099B207D00F98BA6950540FA8407804E033
:101AD0000C9CA3E7BA69FF205054E11CBA69241D8D
:101AE00089B250549AE7688824F086FB26F0F1FE0C
:101AF00010AC009418F066F80146B81F0A90002553
:101B00008D48801C099008950C950D46002D00D13C
:101B1000EFE10D9C608810A90A88294617F038FF6C
:101B2000002800D0E7E10C9F60880B9010A90A887C
:101B300080494B6820790A9CA4B200262946099D59
:101B4000009535460196029403900B980E4606F0D8
:101B500007FC002800D0D0E1BCB2002C0FD07648A2
:101B6000C18A4088021D8A4200D0F3E100190A9917
:101B700088422F4600DDEEE16F4FB86910E00D9806
:101B800040881127002339466C4A15F0A9FA6A4AA1
:101B90009061002800D178E25188091DD182174652
:101BA000B17A0C9B5A1C0155F07AB9699C1C92B20F
:101BB00088540D98418910A802880FAB304615F063
:101BC000A7F805460028A1B205D00F98BA6950546D
:101BD0000FA8407802E0BA69FF2050540C9BD91C32
:101BE000BA6989B250541C1DB869A1B24018514954
:101BF00049687A8825F0D8FE788800190C9085E726
:101C00000124287C0027022804D1687C012801D106
:101C100003270024288910A91EF066FD002C00D19E
:101C200028E10646002800D124E1307A80060CD550
:101C300010A8008826F02DFB002800D122E20346E0
:101C400068881222314698470746002F079E00D029
:101C500038E268882989EA686B896C7C002C00D19D
:101C60001AE2522519E2288910A91EF03DFD00282C
:101C700000D10EE1064668880B21304A0FAB15F003
:101C80002FFAB861002800D12CE1034668880C9037
:101C900010A90A880FA908882C79002707990091B4
:101CA0000197029003940C98314606F059FB0028E6
:101CB00000D139E106462048806913F0CBFA162E90
:101CC00000D138E13746E5E0EA790020E9790020E3
:101CD000A67A0020288910A91EF006FD002800D150
:101CE000DCE0064668880D21144A0FAB15F0F8F9C0
:101CF000B861002800D1F6E10346688810A90A8877
:101D000069890FAC24882D79079F009701AF32C7EE
:101D1000314606F025FB002800D10FE107460648B2
:101D2000806913F097FA162F0D9D079E00D10DE1E3
:101D30002BE1C04608740020B0740020FFFF0000B3
:101D40006888089023F0EEFA0A90002800D1A8E0F5
:101D5000287A012800D0E9E1FC48857809942046DA
:101D6000C6B2AE4200D321E10A9A52680C237343F3
:101D7000D75A002F00D11AE1002C0ED0BC4200D05F
:101D800046E1D21853888EB29E4200D040E192883C
:101D9000099BD3180993511805E0D1188A884988FE
:101DA000099289183C46401CDAE7688801242146DC
:101DB00024F006F8002876D00C942E460836308899
:101DC00010A91EF091FC002800D190E00746007A8F
:101DD000800600D597E06F88384623F0A3FA0028E4
:101DE00006D1DB4823F09EFA002800D1B0E007803E
:101DF000D6498A780C2151430C3100231A460C3203
:101E0000914200D1A4E04468E35A002B1346F6D176
:101E1000A0180C380C2731463A4625F0C5FD079C22
:101E2000204631463A4625F0BFFD6888AA89172129
:101E300000273B4615F054F9F549C861002800D148
:101E400088E12969AA8925F0AFFD6888214622F03A
:101E50008DF90028264600D0CDE10746CCE12004CC
:101E600025D08808B8820D9D6888079E314621F0EC
:101E700099FC80E0002C079E00D121E1012721E19F
:101E800068882989BA8A914200D311461DF002F868
:101E90008CE1012728890EA908804CE00127079EC4
:101EA00073E0089847E1142068700E2720E10D9D2B
:101EB00028890EA908800A2719E16888314622F08E
:101EC00081F93AE107460D9D079E0A9C26F0E3FC46
:101ED0000EA90880CE488069002800D140E113F0A7
:101EE000B9F93DE128890EA90880112723E00C9F4C
:101EF00032E1089F2FE0074601E007463546688932
:101F00000EA9088027E010A8008826F0C2F9002852
:101F100000D1BFE00346688812223946984700285E
:101F200000D158E7074617E16888079922F060F961
:101F3000002800D0162701200C9010E10D9D688824
:101F4000079E314622F028F9002818D10027CFE05B
:101F5000092701E12F460C980004079E11D0AC4DD3
:101F6000E98A0C9880B21FF0C5FAA8820D9D688896
:101F7000314621F02FFC002801D10746B8E0162792
:101F8000B6E0002F00D10A270D9D28890EA90880F0
:101F9000AEE0A8680A9A8118805C4978090208189E
:101FA0000EA9088001200C901127DDE02846C0B260
:101FB0000128099860D900042AD0099880B21CF041
:101FC0003DF8002824D00B90B54200D335460C27AD
:101FD0006F43002425460A984668A74200D18AE04C
:101FE0003619B16800290AD0A8B20B9A1018B28825
:101FF00025F0DAFCB0884519B06813F02BF9002CF5
:1020000004D000210C22304626F067F90C34E2E7B8
:10201000002201231746591E7E48807881420D9D7B
:10202000079E00D3DDE00A994C68A15A002900D12F
:10203000D7E083420B9806D0A0188089002801D0F1
:10204000162000E018206F880C92A618B268099339
:10205000B388758800950190384614F013FE099BEB
:102060000746002804D0162F00D0B4E00020B0604E
:102070000C9A0C325B1CCEE70A984668B268B388AB
:102080000D9D3FE00E27079E1CE070890EA9088079
:102090000D9D2CE00E275FE02D7900240094019522
:1020A00014F0F0FD162819D0074600280D9D07D121
:1020B000687C002800D1A1E001200C90274606E0B2
:1020C000002F09D028890EA9088001200C90687C77
:1020D000002845D0002743E00027F6E70C94274668
:1020E0000D9DF4E70D9D28890EA908801127079EF4
:1020F00001200C9034E00B9AB260099BB3800D9DD7
:1021000068880890318870881824009001949BB2E8
:10211000089814F0B7FD002808D00746162811D1FA
:102120000020B0600A981DF061F93FE00A981DF0A8
:102130005DF9079E688826F045F901210C91002879
:1021400026D133E030880EA9088049E008740020C9
:10215000FFFF00000C97112730880EA90880079E0A
:10216000002F13D0162F11D0687814280ED028799C
:10217000274908750E98C8820F766888314625F081
:10218000A7F9002802D00120059001E0162F0DD1FB
:1021900068880599CDB22946324614F05BFA0028CA
:1021A00003D03046294626F055F90D9D28461FF0EC
:1021B00001F80C980028069C04D02846083029799C
:1021C00026F048F9284624F0A7FA0120C0078443E6
:1021D000204611B0F0BD0C98205A0EA908800D9D24
:1021E000079E0A981DF002F901200C90162FDDD0F1
:1021F000002F9FD0B4E7162700207AE7688826F0E2
:10220000E9F801210C91002800D157E71627A7E72C
:10221000B074002008740020F0B591B004468078B6
:102220000025102800D9BFE34000C04678448088CC
:10223000400087441000B903B903B903B90356003D
:102240003A00B903B90320015000E500FC00B903CE
:102250006E01370172036078002800D0A4E326F0F5
:1022600027FC079026F014FD089022F0F7FF0BAC36
:1022700020700226102730463946079AB04B9847FF
:1022800003203946089AAE4FB84704200121224660
:10229000B84720783043032800D085E3012017F0A9
:1022A00059FC024606200146F9E0A0881FF082F999
:1022B00026F0BAFE002800D076E3A24CA07B0128CD
:1022C00000D05FE123F0FEFC0021A173606A627D13
:1022D00026F003F85DE16078002800D140E1002697
:1022E000FFE26078FC2802D0002800D05CE30126E1
:1022F000E178201D62890892277B002500953140F6
:1023000009AA2B4626F0D5FA00286DD109A8007835
:1023100023F0BBFE04463E46083E701E86418948B7
:10232000C07D800027F0E4F80790002800D177E115
:1023300009A8069001788348C078801E4242424135
:1023400000920898059422463B4619F0F6FC0BAC27
:10235000002714222046394625F0BFFF0698007852
:1023600006210691484324301021224624F0FCFE29
:10237000002818D10BA8FF21102224F072FB00289E
:1023800011D109A801780698484325300BAC2246A4
:102390001032042124F0E8FE01210598014008983C
:1023A00022461CF0D9F809A800785321890040186A
:1023B0006449C97D8900079A24F0D6FE002800D11F
:1023C0006DE16048007E002807D10598800704D59C
:1023D0005D48017808981DF063FB09A8007819F0A2
:1023E0001DFF079827F08CF8002E00D1DCE255483D
:1023F000C078022800D0D7E2089826F0C5FED3E2C4
:10240000012526F01FF8002800D1CDE24D48C06A12
:10241000002800D1A1E00668002E00D19DE0E01C5C
:102420006189227B637B24690094B047BCE2A58864
:10243000277B28461EF0F0FA002800D1B3E20446BC
:1024400026F000F8002800D0ADE2A01D617900233D
:102450000093012631400BAA26F02BFA002800D168
:10246000E2E03848C078002800D097E205212846ED
:1024700024F061FA97E2201DE17800230093012502
:1024800029400BAA26F015FA002800D08CE20BA8F0
:1024900001780620484325300C340421224625F0DB
:1024A000B3FA81E2274FF86A002806D04368002B70
:1024B00003D0A08800210A469847F978A08800290F
:1024C00053D01EF0A9FA002800D16DE20646A07A8A
:1024D000C00715D0B01D727900230093012111406F
:1024E0001A46089326F0E5F9002809D070790228E9
:1024F00006D3A08953218900B431084200D1F0E00D
:10250000F87B022836D1A07A000733D4A0880321B3
:102510002DE06078062800D0B2E0A0881EF07CFA9A
:10252000002800D1ACE00749897C491E032900D965
:10253000A6E0C0467944097949008F440799949EE2
:10254000097A0200E8720020D36A0020A38841794A
:102550000022184612F0A2FB92E06089012106E0F9
:10256000A079C0071BD10026C0E10125052124F078
:10257000E2F919E20125A08808347179224612F0A7
:102580008DFB11E2E07C002839D011F0EDFE002037
:10259000E074502022F02AFF1CF046F904E209A85A
:1025A000002508262946324625F097FEA0881EF011
:1025B00033FA00284CD007466069002815D00697EA
:1025C0000790113000210622089024F04AFA0028D2
:1025D00000D1A4E0002706220798394624F041FAEA
:1025E000002800D183E06761069F787901210140CE
:1025F00009A88171B91D062225F0D6F9B4E0607DE5
:1026000000268642C5D2616A895D012906D1F0B2F1
:102610000BF086FB606A00218155607D761CF0E737
:10262000042024F0C1FCBFE10BA8007823F02DFDAD
:10263000FF2800D1B2E10246780745D4002A43D1F1
:102640000BA80178A37C0096284619F076FBAAE136
:1026500023F082FF002800D196E0E44800780421AE
:1026600011F02AF890E0E34800210A4602F074FED7
:10267000A08805211CF076FB02E0A0881FF0E0FC9A
:102680000125DB48C06A002800D18DE14368002B9A
:1026900000D189E1A08862780221984784E1079CF3
:1026A000204623F069FFD248C07D874200D388E6E8
:1026B0002188002905D0A278089824F04BF9CC484D
:1026C000C07D7F1C241DF0E70C2007400C2F00D19B
:1026D0005FE1082F00D158E1042FB1D1D007AFD16D
:1026E0005CE1A088032124F026F9089D5CE10596B1
:1026F0000798007C0121014007913E46761C08980E
:102700000670009707993A463B4626F0D2F8002813
:1027100001D13006F2D13006059E00D163E762692F
:10272000002A069F20D00596107C0121014009A8AF
:1027300081710892164611360622314625F034F989
:102740007879012805D138460C30B91D062225F0CC
:102750002BF9B81D0622314625F026F90898007C91
:10276000022101437971059EA1793879FD22024049
:10277000480802230340D018090702D4DF2108408B
:1027800001E0202108433871A0794107C90F09AA47
:10279000D37906401E430E43D6716169002921D0CA
:1027A0000BAE102730463A4625F0FEF83046394643
:1027B00023F0E2FD904800780D27904E854211D21B
:1027C0003168C9190A460D3A1278FF2A07D00BA8BA
:1027D000102223F081FF012806D0874800786D1C65
:1027E0001E37EBE7FF2600E0EEB209A8817900254D
:1027F000009510AA2B4626F05CF8FF2E1DD0342839
:102800001BD17B48007D012862D0002815D17B4870
:1028100001681E2272438818401C895C00260096BD
:1028200010AA334626F045F8002806D110A80078F3
:102830000BF076FA002800D1B9E009A8817900955B
:1028400010AA2B4626F035F8002804D01EF072FEA0
:1028500010A908701DE0616910A80078002918D03F
:1028600006234343233310210BAA184624F07CFC93
:1028700000280CD10BA8FF21102224F0F2F8002828
:1028800005D109A98A790120104024F019FA10A86D
:1028900000785749497D884218D2A26826460C36EE
:1028A0004ACE0F69009601910297039509A90AF093
:1028B000D5FA00283CD00646A08815F08BFE10A85B
:1028C00000780BF02DFA1BF0AFFF06E0152604E0B0
:1028D000A08805211CF046FA0126A0881EF06AFE99
:1028E00060780B2802D1A0881FF0AAFB404DE86A4F
:1028F000002812D04368002B0FD0A08862780121F5
:1029000098476078002808D1A079C00705D0E86A08
:102910004368A088032132469847012523F01CFE16
:10292000002841D031480078042110F0C5FE3BE07A
:1029300026F00CF90646A0881EF06EF8002E15D081
:10294000002813D0407CC021014040290ED009AAA4
:10295000917901273940304614F0FCFFFF2805D05B
:1029600009A9887938403A4624F0C6F9A08815F0BC
:1029700031FE1F48817DA088002902D01EF01AFE7A
:1029800001E01DF039FB2E46AAE70920024205D0DE
:1029900056E6D00702D0100700D551E66179002233
:1029A000284612F07BF90125284611B0F0BD1BF036
:1029B0003BFF1EF0BFFD10A90870A1680891E168F7
:1029C000236962690029374600D00F69009201919E
:1029D0000297039609A9089A0AF040FA0646A088C9
:1029E00015F0F8FD002EC4D069E7C046D36A002078
:1029F000E8720020090400004B6C0020F86B0020F6
:102A0000F0B595B00F4609780626002902D17C78EA
:102A1000012C02D1304615B0F0BD0692BD781D2DB7
:102A200001D01B2D1CD132490978FF29F2D0002694
:102A30001D2D079070D122F039FC00286CD005467E
:102A4000827A002A67D050B200260028E2D41D21E5
:102A5000079823F0B1FDA87A80210143A972D9E734
:102A6000079022F023FC0024002800D1BCE2012DB5
:102A700006D10546B868B98809AA23F04DFF0BE0D6
:102A8000817804268D42C5D14368002BC2D005460B
:102A9000B868B98809AA984706460028BAD12E46D0
:102AA000A878401FC1B2C20149085118C9B209290A
:102AB00000D9A3E001252A468A4057231A4200D1B3
:102AC00096E0BF78E8410928059500D95EE2059DAA
:102AD0004000C04678448088400087440B001A01BB
:102AE0009800570239015702510157025702E1007D
:102AF000A8790020052F00D026E126F0B8F909A911
:102B00008A780A980988012A00D0EAE189004018E9
:102B1000011FC01EEBE12E460596BA68BB8809A8C6
:102B2000009000252846214622F054F90646002848
:102B3000079A00D06EE70FA8FF21017008A8057062
:102B4000F54E706800280AD00368002B07D008A94A
:102B500014460FAA20469847224600281CD03078F9
:102B6000BB7809A900910024114622461BF0C2F847
:102B70000646002800D04DE70A98002801D00698A4
:102B800004700599002900D12EE2B8781D2800D0E4
:102B90002AE21D20887227E20FA8017808A802788F
:102BA000204618F043FB22460028D8D00A98002877
:102BB00002D00120069908700599002908D0B8783C
:102BC0001D2805D11D208872104621F061FA224689
:102BD000706800280AD04468002C07D010461646BA
:102BE00024F0B2FE012801D13046A0472E4611E75D
:102BF000092903D13169002900D062E73546707A8E
:102C0000C6490978884200D0DEE00026F1E0092FAD
:102C100000D000E109A801884A1E408842432423CD
:102C2000F55C6D1CF5540A9B92B29D189A5C6B780A
:102C30001B029A180292327B012A00D04FE10197C1
:102C4000414309AA0027178089B2039104963546AB
:102C500013353946CEB203998E4200D33DE1049933
:102C6000897C0A9A9219521D401F83B228461BF094
:102C700093FF002810D0B8B2864206D00A990818EF
:102C8000891909AA528824F08FFE09A94888C71912
:102C9000099A521C0A8001E009A840883118D9E736
:102CA000307B012800D0C2E0172F00D0E7E0306968
:102CB000717D0C256943425A09AB1B889A4200D0AA
:102CC000DDE04018418809AA5288914200D0D6E040
:102CD000828809A989888A4200D0D0E080680B994F
:102CE00023F0FAFC002800D1C9E00197707D411C57
:102CF000C8B271753746317D884200D37EE13969AB
:102D000045434E193888495B7288B388B568009589
:102D1000AAE0072F18D126F0AAF80A9809A909886D
:102D200089004018011F0978C01E00780002401871
:102D3000F189884200D31AE131460C31401CB08140
:102D400030881AF034FDE0E009A800790A28A4E0F0
:102D50000D2F00D09EE026F08AF809A8058830885B
:102D600023F04AFA401EA84200DD00E131460C3152
:102D70000998F2891018F081308824F0F1FBC4E042
:102D8000112F00D092E00998401E09A949884143BB
:102D90002420325C521C32540A9889B2401881783F
:102DA000C0780002401800259949884200D1F3E01C
:102DB000411CB181F189814200D8EDE031460C31EE
:102DC000308822F0D3FCA0E0BB7809A90091002450
:102DD000079922461AF08EFF0646002809D1B978D5
:102DE00009A81DF0D5FD0028264602D00026069829
:102DF00006702946A8780328079808D1898909AA66
:102E00001288914200D311461CF044F82946084626
:102E100015F00DFEFEE509A80079062801D00A2864
:102E20007ED12420305C00283ED101207BE0172F8A
:102E300025D1308823F0E0F9401FB18B0A18B28306
:102E4000718A511A8BB2B18A8B4200D391E00197FB
:102E5000CD1A854200DB05463088318A3746B6698F
:102E6000F3180093ABB292B21BF0E1F9002800D145
:102E7000BCE00FA8002101703E46019F02E00FA8B0
:102E80000021017030880FA924F02EFB012F17D1EB
:102E900001201EE009A800790728059D76D124208D
:102EA000305C0028059D71D0002556E009A8007906
:102EB0000A28059D6AD12420305C454245414CE0FA
:102EC000307A514919F094FE1920B0704F48706063
:102ED00016200125012859D084E0049E019F029903
:102EE00025E012224A438018014612391138097828
:102EF000007800024018F189884238D231460C31FE
:102F0000401CB081308824F0FBFA307A3E4919F039
:102F10006FFE162540E0C046A8790020316C0020E5
:102F20002420305C401C2421705409A84188481E8C
:102F300000250A46374988420FD8308A82420CD28F
:102F4000521CF281317B012916D10FA90A804880D9
:102F5000314888802820887110E0012F16D1002D7B
:102F600014D109A800790A2801D101252DE00025F6
:102F700012E00FA8012184E731460E31308822F09B
:102F800007FC307A204919F033FE162509A8092FCD
:102F900002D10088002813D0707A09A9009100227C
:102FA00007993B461AF0A6FE002802D001200590A2
:102FB00006E009A839461DF0EBFC4142414105916C
:102FC000162D0ED0002D059D07D1707AB378002103
:102FD00000911A2207991AF08DFE304615F027FD50
:102FE00000E0059D06980570264613E53E46387AB2
:102FF000054919F0FDFD1620019F6AE73E46B87DA0
:103000000FA9087039E7C046307500000190020032
:10301000FFFF0000FDFF000002030000F0B593B0C9
:10302000002800D12FE204461B20000120180D903B
:103030005B20800020180E90FF2001466631631847
:103040002321C900611809910146063161180B91CD
:103050002146F0311091214684310F912646773672
:10306000214676311191214667310C910E3020189E
:103070000A90581C03902046E03006902046A43069
:1030800005902046D03004902046B4300890204669
:10309000BC3007901F4F1293B07A0025002800D152
:1030A00059E2317808462D380D2800D8F0E1881E05
:1030B000282846D84000C04678448088400087448D
:1030C000F40149002B00D900AC00F3004900800056
:1030D0004900FA0026017B009D00070172003801BB
:1030E00052014900620049004E0090004900490029
:1030F00049004900F00149004900490049004900E0
:103100004900EC01EC01EC0149004900490049008B
:10311000F001C0465469002026F016F900D0F4E111
:10312000F87A002800D1C8E100200C994871F121FB
:1031300026F01AFAA0790899079A1CF0ADFD129BA7
:10314000AAE7F22900D114E1F12900D103E2F32921
:1031500000D1E8E1002023F027FF129B9CE726F036
:10316000F3F800D0B1E10D9A107B410642D4C107BB
:1031700000D07DE1810700D404E2BC210840107337
:10318000A1791A207AE126F0DFF800D09FE10D9AAC
:103190001078810600D51AE1810700D48DE1DD2188
:1031A0000840107025E126F0CFF800D0A5E118798D
:1031B000012800D194E02FE126F0C6F800D1BCE050
:1031C00089E126F0C1F800D0A1E1F87A002800D109
:1031D00073E1608CE08302201099087526F024F9D1
:1031E0001EE126F0B1F800D08BE10D9A107B41066C
:1031F00000D462E1BF210840107311E126F0A4F869
:1032000000D06AE1109F387D032800D10DE102282B
:1032100000D0ADE126F008F90EE126F095F800D0D7
:103220006DE1F87A002800D147E1608CE083204608
:1032300019F084F801250C9F3D7020461BF049F8D9
:103240007D71109D297B0B98027810201040012978
:1032500000D0F7E0002808D00020129908704878C4
:103260000999896C490819F0C3FCA07900211FF065
:103270007DFFF6E026F068F800D081E0F87A0028BB
:10328000109F09D001210F988175A0790A4626F078
:10329000E3F900207860B860B87B012800D00CE129
:1032A000062126F061F9CAE0072126F099FA0128E3
:1032B00000D1B5E04FE126F047F874D11098C07BFB
:1032C000012800D0F9E0F12126F04EF9129BE3E647
:1032D00026F03AF800D016E11879012800D08CE0E9
:1032E0000E98007E0F2803D0002023F05DFE129B75
:1032F000002018710E98407EA1790F9DAA8952086E
:10330000EB892D8A2D0900951CF05AFC88E026F0E7
:103310001BF800D0EAE00B99087C012800D0F8E007
:10332000487C01287CD125F0E2FA00201DF01DFE2A
:1033300076E026F009F800D0CBE0F87A002810D02B
:1033400000220F988275A0790127394626F084F96A
:1033500002960C9E377020461AF0BBFF7771994F8A
:10336000029EB87A5AE025F0EFFF00D0C3E0F87A69
:1033700054E00F98817826F0F7F8012011990FE0BA
:1033800010990878012800D1E8E04878002800D199
:10339000E1E006980599049A1BF0A6F9012010991E
:1033A0000870129B78E60B2126F01AFA012800D04B
:1033B000D1E000221098C2730F988275A079012580
:1033C000294626F049F911980570129B64E6DF2121
:1033D0000140117001070CD5D72108400D990870E4
:1033E000A0790E9D298EAA8E6B8EED8E00951CF015
:1033F0002FFC00200E99887712E0D87801280BD195
:103400000020D870A1790F9DA8894208EB89288AED
:10341000000900901A2077E70F98007900284CD017
:10342000204618F08BFF129B36E6A1791A200A9AE3
:1034300019F07CFE00203875204618F07FFF129BA3
:10344000604F29E6002807D00998806C42085E4842
:103450002146039B25F064FCA079002101221FF086
:103460006BFE584F002028732874E881129B13E6E6
:10347000BE21084010730E98407EA17900221346A9
:1034800016F010FCCCE7002023F08EFD012562E051
:10349000204626F02DF905465DE0204626F0FCF892
:1034A000F9E7204626F0ECF8F5E725F04DFF4DD181
:1034B000B87A002801D0162103E025F073FB4AD129
:1034C000222120461FF065FDE0E716213FE0142190
:1034D0003DE011213BE00D2139E00E2126F080F97D
:1034E0001199087001201099087534E001200B999A
:1034F00088740C212BE0122129E0102127E00621FD
:1035000025E0172123E00F2121E004211FE00921FC
:103510001DE025F047FB1ED125F0E9F922252846BC
:103520001DF023FD38E00F98817808460C380828F4
:1035300042D8C0467844007940008744043D0430B6
:103540003D3D3D3D040026F00FF80FE0022126F03E
:1035500047F911990870284613B0F0BD052126F0EF
:103560003FF90128F7D10025109885730120F0E775
:1035700025F018FBEFD1A179222528460A9A19F0E7
:10358000D5FD09E025F00EFBE5D1A1792225002229
:103590002846134616F086FB2046294692E7F1217D
:1035A00025F0E2FFA0790E9C21886288A388E48838
:1035B000009417F003FDCEE70025284623F0F4FC25
:1035C000C9E7C0465469002099740100F0B5A5B060
:1035D0000446FB484068002802D0804700284BD0B2
:1035E0000321F84BF8480078421E1394002C0E92E9
:1035F00000D001220904159159780F9199781691FC
:10360000DA731F46183700241494844222D2169885
:10361000A0421AD0E5B2002117AA04262846334654
:1036200024F076F817981599084202D01499491C8D
:1036300014913043C0B27C2806D10621F8262846D2
:10364000324624F071F83E70DE4B641CDE48007890
:103650000C37DAE71499C9B2401E884204D1587970
:10366000002801D100201FE201200490C20213991A
:10367000002903D0084602E00B2015E21020511A61
:1036800005911292101A089000200C9007900F9D3F
:103690000E9C0C99200400D1D4E11491D87B002811
:1036A00001D10120D873EEB2002717AA04233046B7
:1036B000394624F02DF817981399002913D015993D
:1036C000084213D0701CFC4909781DF013FF0D4609
:1036D000F84B129818825973D87B401ED873641E19
:1036E0001499491CD6E70B970F9D02E00E9414998C
:1036F0000B910F95C0B2702804D00F98C0B2702102
:103700001FF09CFD1698C4B2002517AE0423204676
:103710002946324623F0FCFF3078FE2803D0FE21F4
:1037200020461FF08BFD0621FE262046324623F060
:10373000FBFF0C22104660431194DE4F39461631D0
:103740000C18A01C0A90A67016983873129838822C
:103750000F987873C3B21693149210465843081802
:10376000C6887E82FF20B873BD827D208100D44848
:10377000069125F07BFACE480570F87BCF49169A62
:1037800051180818CC49097800B2169119F0E4FFD5
:103790000F9B3A46119F1091A01D0990E0880D9053
:1037A0002946DCB2BC4200D1BCE0E80700D0CEE044
:1037B000B7B2162F00D89CE0BD480078002800D092
:1037C00050E716910F93F01F039081B218AD204679
:1037D0002A4616F061FFE98908461030B8420DD834
:1037E000A87A96280AD10398451A18A8427AA8B24E
:1037F0000391234619F0E8F8002828D0751EAD4A39
:103800000F9B119FA8B2172800D219E1362802D8C1
:103810002E46163E00E02026AD1BB3B2A9B21DAA6B
:10382000204623F075FFA34A0F9B3004EAD0B0B2C4
:103830001DA94018401E0078962801D0761EF4E796
:103840007619002516999C4800781690A9E70195ED
:1038500018A8C07A0025C107964A119F04D1800795
:103860000F9B04D4019EEDE7019E0F9BEAE70398AE
:10387000C11D0D9880B2039189B209181298009168
:10388000814201D9049DDDE789480078019F039EAC
:10389000310420D000281ED10396B6B20698864285
:1038A00000D3069EB9B220460297854A334623F0DC
:1038B0002FFF0D9FB9B21198814A33461FF05EF871
:1038C0007B490870BF190D97029FBF1903998E1B82
:1038D000784A0F9BDCE71699491C1298009C844299
:1038E00003D1019E0D90049D01E0019E0D94119F56
:1038F000A9E7002903D01498604310188683109814
:10390000C0B28442119F29D0601C169989B21DF063
:10391000F1FD684A0B460846149948431018868BF7
:1039200000253DE762480078002800D09AE6169A04
:1039300011B262481018001900B219F00DFF5D4A6B
:103940000B46C8B2149948431018868B0CE0002926
:1039500005D0149844431019868300E0109B544806
:103960000078002800D07DE60D991182968293732D
:1039700009980180517B1220125E012438462346AB
:1039800021F0CCFB4B48817B14204A4A125E022373
:10399000384621F0C3FB4748008A1399002907D015
:1039A0000599814207990B9E04DB2146079401E0AB
:1039B00000210B9E11910899814207DB7C2106E0D2
:1039C00060740020C8630020216C002078213846F4
:1039D0001FF034FC0CF06AFD05463846354FF97B84
:1039E000491BF9730621FC24224623F09DFE0A9808
:1039F0000470B878B1B2691808182F490E783146AA
:103A00001DF078FDB9701691481CC0B231461DF00A
:103A100071FD7970B97B149848433818808B102851
:103A200005D1481C31461DF065FD224B00E03B46A8
:103A30000F910E98401B0E901198C00702D126E6F8
:103A400010268CE77C2020F0D5F80446FF281AD1F8
:103A50007E2020F0CFF80446FF2814D115494C7879
:103A60000C2060430818807DFF2808D08878124910
:103A700009784018401E19F06FFE0C4603E07E21C5
:103A800020461FF0DBFB0B4DEC70E0B20C214143F4
:103A90006818808BE880A878FE211FF0CFFB0020FB
:103AA0006871288A1299081A00B225B0F0BDC04684
:103AB00060740020C8630020216C0020FFFF00001C
:103AC00054550020F0B59DB00446FB4E3078FB4DB8
:103AD0002870032800D024E100203070287011A83D
:103AE00025F030F9002800D019E101200F90119045
:103AF0002846243011A91DF0E3F8002800D00EE17B
:103B00000F98C0020D90EE4F5E21384625F0AEF8BA
:103B10000C370A21FF2238460C9224F035FF20F0A2
:103B200061FD0020109021461CF08EF9A860294606
:103B30000C3125F092F92C696D69204629461DF05B
:103B4000D9FCC1B2062900D30621DD480170DD4F42
:103B500039700D98854200D0E1E0C802844200D25D
:103B6000DDE0D6488068002800D1D8E0D44A109E15
:103B700056710C9BD3700F98C002D08006960996A0
:103B800007960596049608960A9601930293039366
:103B9000CCB2A64200D3C6E0F4B200251CAA04238E
:103BA0002046294623F0B4FD1BAA20460E9529463F
:103BB000F14DA84701271AAA20463946A8470221F5
:103BC00019AA2046A8471C99C8B20246703A0E2A84
:103BD00004D83B469340E94A134203D10246FE3AD9
:103BE000022A03D28A0CE64B9A421FD020460FF0DD
:103BF000EDFFDD490870002800D0CAE035460026F8
:103C00001CAA04232046314623F082FD1BAA20462D
:103C100031462E46D84DA84701211AAA2046A8476A
:103C2000022119AA2046A8471C99C8B20C22109656
:103C30007243CE4B9E183346163318700A0AF2753B
:103C40008903890F71761BA989783176FD2801D9FE
:103C5000102126E01BA90988CA4A914221D10B9361
:103C60000E9814900D9DA8B2051FA9B214AA0423A2
:103C7000204623F04DFD1498411C03D12946C24A29
:103C80001140F0D139460B9BFAB2042A06D8C2B2D1
:103C9000FF2A00D03946000A7F1CF5E7C8B2291870
:103CA0001878B1831AA98978B1761A99F18319A97C
:103CB0008978F17619993184702828D07828AC4F0A
:103CC000109E20D07C280AD07E2812D0FE280BD04F
:103CD000FF2814D10698401C069003961CE0059816
:103CE000401C0590029617E00998401C09900C961C
:103CF00012E0B0B201900798401C07900CE00A98BF
:103D0000401C0A9008E00498401C049004E00898C5
:103D1000401C0890964F109E761C397838E7012099
:103D200030701DB0F0BD0A9800060BD10998C0B2E2
:103D3000012807D80898C0B2012803D80798C0B254
:103D4000012810D98B48042202700024CAB2E0B2C4
:103D500090420FD20FF03AFF834A1178014311705D
:103D6000641C3978F2E70698C0B2A04214D18148A9
:103D70000022027000207D4C6070491EA170E0702E
:103D8000A18BE1807E211FF059FAA078FE211FF05F
:103D900055FA75480078C4E70898000624D00998B9
:103DA000000605D10698000603980C9000D18BE020
:103DB0007048022101706D4E0C9FB770781C80B264
:103DC00021461DF097FB7170FCB220460FF0FEFEFD
:103DD00065490870FE2120461FF030FA0F98707177
:103DE0000020FFF7F3FBD4E7099800061ED00C98DB
:103DF000039060480F9A02705C4C0398A070401CBE
:103E000080B2C9B21DF076FB6170029880B2FF28C3
:103E100022D10198FF2800D098E0544AD17088B28E
:103E20000C2141435018808BD080B2E70598049A4A
:103E3000104300064E4F85D021F05CF9A04247D3D5
:103E40000698000600D18AE048488078FE211FF0DD
:103E5000F5F947480178CCE7444A0299D1700C2122
:103E600041435018808BD080182892D3C11F0298EC
:103E7000C0B289B214AC224616F00EFCE07A4007BC
:103E8000AED53A49C878C98814ACE289891AC91FE5
:103E90000022009289B20323224608F0F9F8002894
:103EA00000D076E7A189002900D172E714A8007C30
:103EB0001DF040FA6DE7C0460B78002060740020CA
:103EC000C8630020216C002021F014F9A04246D2E2
:103ED00028480321017021F00DF90446234E307368
:103EE0000C25284660433018817E7173C07EB07304
:103EF0000CF0DCFA00191E490C7821461DF0FAFA84
:103F0000B170481CC0B221461DF0F4FA71707C20DB
:103F10001FF070FEFF2810D17E201FF06BFEFF28DF
:103F20000BD1FF201FF066FEFF2806D178201FF07E
:103F300061FEFF2801D10D4840780C49C870C0B21D
:103F400045434819808BC88088781FE70749019A44
:103F5000CA700C2050430818808BC88019E70548A8
:103F600006210170FEE7C04660740020C86300208F
:103F7000216C00202C6C00201585020001510000EE
:103F800083250000FFFF0000FCFF0000F0B587B0B4
:103F900016460546041D50040595029440D401912F
:103FA000C805C00E00D189E0052080033146814359
:103FB000039100200690824C82480068042800D2B9
:103FC00088E0049600201FF0E5FD80B2451D2F46D5
:103FD0007D480740606939461CF096FC06466069DA
:103FE000864204D008200699014306916661002E9E
:103FF00069D0A908F08935461035281819F0A8FDB0
:10400000F0892918E279CA70C019F0810420069954
:1040100001430691059D686B25F0F2FB039ECBE7FB
:1040200004962E463036F94C21F008FD039024F01A
:10403000A1FF6F6B7969B869009121600002F549B1
:104040000860F548808DF64CE08120F0CCFDF24907
:10405000888600200190EE4908830697788AED490A
:10406000888010206071688821F0A8F804463078B4
:1040700017F00CFC29468227002822D00546084666
:104080003130007829461EF041FC002800D0AFE016
:10409000032C00D0ABE00698007C41424141284609
:1040A00003F07EF81FF02EFDD948019AC286B05663
:1040B000C1B2402900D2CDE01146CDE000200690EB
:1040C00011E00D4695E085206071D848012101601E
:1040D000059D049EA079002804D0A86BD149C96829
:1040E00017F006FC029C0198800431D50496CC4E52
:1040F0007089CF494968411A4220375A0391B94221
:1041000025D24420345A686B21F0E0FC002810D0FE
:10411000022101728189B26B904202D10020B0630A
:10412000F063481DC34908403F1A641E0398B84213
:10413000E9D3039887420DD1002C0BD4383603986D
:104140007081B481102006990143029C09E0049E0D
:1041500006990AE084207071B44801210160029C34
:104160000699B448001D049E06437006C70F0F430E
:104170000120C503681C019901422FD0032000BF14
:1041800000BFA44880880599496B48820224A4484E
:10419000407910281CD1019828409F48008815D1EB
:1041A000411E062900D997E01320C04679440979B9
:1041B00049008F440D03939191959700142007E0D7
:1041C00068610020CC110840FCFF01001EF0C6FE13
:1041D0002743029C2178000208182080B807059D1B
:1041E00014D5A86B8F49C96817F082FB0EE02746EB
:1041F000059D049EF8B20F2801D8002000E00120A0
:10420000029C21783A0289182180470060780002D8
:1042100003210902884212D1F00305D5686B25F00D
:10422000EFFA0120000486438248001D064206D0B2
:10423000686B7B4A38320023D9430AF0CBFDB807BC
:1042400005D520F08DF923F053FE22F0BBFE384651
:1042500007B0F0BD402211437F240028059D049E35
:1042600001D4084600E020406B4948866C49097932
:10427000002904D000060099484068490860FF20E2
:10428000644988822846039919F0B6FC07460F282E
:10429000B0D8A86B0025002829465D4B45D0614960
:1042A000C96819621C820021417084700278D207AB
:1042B0001CD1584AD186118751879187D18719809F
:1042C00059809980D980198159819981D981017545
:1042D0008160C160016124E0102079E7152077E753
:1042E000412075E7022014F0B1FE71E7017A494AD6
:1042F000D186417A1187817A5187C17A9187017B72
:10430000D187417B1980817B5980C17B9980017C59
:10431000D980417C1981817C5981C17C9981017D41
:10432000D98100780221014049083D4881710298F5
:1043300000780128284604D13A48C0680599096ADE
:10434000081A019021F016F820F020F9344F388136
:104350007D610598406B25F053FA012622F03CF868
:1043600078810698017C00292B4604D0428A1821C6
:1043700011404B424B413704294C22463832A56349
:10438000E563167255819581022103920AF022FDA0
:10439000A2792148808D2449002A02D08031084624
:1043A00002E04007400E4840059D0499B94304913E
:1043B00024F060F90698007C002806D0698E0198E8
:1043C0004018002804DC132703E0042410490DE002
:1043D0000327049E002902D0012800DA0AE70029F9
:1043E00000D108460A494882032400260E8724F09B
:1043F00069F8022000BF00BF0C4804600023D943C5
:104400000698039A0AF0E6FC0327F2E640140840F7
:104410007C2009403C200940062009404014084007
:10442000686100209867002071A1000030100840EA
:10443000CC110840FCFF0100F0B595B024F07AFBE8
:10444000FF2800D1F0E10446F848456824F072FBEB
:104450007B2291004143681871218900405CC007AC
:1044600000D0E1E10B92E0B224F0D6FE064607460A
:10447000FF202030315C012903D1301841783846C3
:10448000D0E10F20400130180F90DB2040003018A1
:1044900012909F243546763525F005FAA87C02282F
:1044A00014D10F98808800070ED5B979788E42080C
:1044B000BB8EF88E0009009000201BF081FB0F9A44
:1044C00090881821884390800020A87403954B2180
:1044D00091226000334696330D93129B1B78022B7A
:1044E00002D10023129C23708900550034183046F5
:1044F0002E3005900D98007802280BD100201491E1
:104500000D990870B87931466231059A127B1CF01A
:10451000D1FE1499139777180A9670190C90218B75
:10452000002902D0A07D0FF0C7F80720049025F0E5
:10453000BBF9139A50891081BD4E717C707B11902C
:104540004318F07B14901818B37BC018357C08957D
:1045500040191090B748056892793C200790029264
:10456000504328183025405D0690B88809914018BE
:10457000B880F07CFD882818F880307D3D892818A7
:1045800038817889119A80187881B8890E93C0187B
:10459000089BB881F88914994018F881388AC018A6
:1045A0003882B07C258828182080707A6588281881
:1045B0006080F07AA5882818A080B07AE58828184D
:1045C000E080307B658928186081307AA5892818B9
:1045D000A0810C9A9088401C9080108810994018F7
:1045E00010805088119C001950803D68002D10D01B
:1045F0002146069840002A182B5A109C1B192B5252
:104600004A20135A59181152B07B0E90F07B149027
:10461000337C099800280A9D27D10E98002824D1C0
:104620001498002821D1002B1FD10020139CE08377
:104630000F9E3068B188049A11400127FA070240A2
:10464000501803D0002102981AF0B4FF784B587B21
:1046500000281BD0207C002801D0E089A081207F89
:10466000012830D1608CE0832DE000271298078468
:104670000F9E3068C10F139C47D0B1884A07920F34
:104680003AD0002102981AF095FF3EE00C99C888B4
:10469000401CC880207C0227002814D0606940009C
:1046A00005990978644A4A4380180B990901401812
:1046B000149060490968A2793846079F7A430746F3
:1046C0008918149848862089A189884204D0401A04
:1046D00025D95A49884222DCB088800606D40C9835
:1046E0000088002800D19BE008219AE0A0793E21B3
:1046F00025F00EF8FD2194E0CAB2521C03231340AA
:10470000049A914359183060B1802089E1890818D2
:10471000A081207F0128464B01D1608CE0832B20B3
:10472000C0002918587A00280FD00120207703985C
:104730000078002809D10398807C002805D10D98C5
:104740000078002801D1608CE083087900280BD024
:10475000022804D1987B002801D1002003E0187DB5
:10476000002801D002200871587800280FD058681E
:104770002168C8602F480168A079079A42438918C8
:1047800000224A86B188012212020A4311E0294818
:104790000268A079079B4343D218538E0B60244BC9
:1047A000116A2268D1600021E1832177B188244A0F
:1047B0000A40B280743599787F2900D1812129700F
:1047C000812901D024F070FF204624F061FD0128EA
:1047D0002AD000252046294623F067FA204629469C
:1047E0001DF029FE24F07CFE24F07EFF204625F0FB
:1047F0004CF824F051FD1348103016F033F93846C8
:10480000109922460DF0AAFC022F00D0257400F06A
:104810000DFA24F07FFF002806D006F037FE03E0F3
:104820003E2120461EF0B5FB15B0F0BD406B0020C8
:10483000546900203C7A0020C4090000AA1000003E
:10484000FFFE000060760020F0B591B00546002420
:1048500010940F941E20002D00D1CCE109902F6EF2
:104860000FA910AA28460CF03BFB072801D107200E
:10487000C1E10D942C462934686E132140567F28DF
:1048800004D10021204621F0C7F809E02070002162
:1048900022F026FFC0B224F0D6FA002800D1D8E0DA
:1048A00028465D3006903846C03007903846803044
:1048B0000C903846653008903E4630360E953D1DCA
:1048C000CE4838600B940D9CAC702C80FC71CC48A9
:1048D000B86038460C30242124F0C8F90720307025
:1048E000701C0F2124F0C2F90B980057214622F0CA
:1048F000F7FE70700E98416E497A31702B88012254
:104900001343FE2104918B432B800A92FA71109974
:1049100039623546B4700646394624F0EDFC384617
:10492000403039466831B863F9632A21019024F098
:104930009DF97F2008994871FC663C677C670B9C59
:10494000386A31463061AF48007806990870AE4841
:104950000078002812D0607E0499084002280DD10A
:10496000AA4E30680D3023F006F9002806D10E98C3
:1049700030303168C91D062223F016F8607E411ED2
:104980008841029529463431039134230593E95C2B
:10499000FD220A4040001018E854384658300E995D
:1049A000303106919A4B06252A4698470C9C0D9E5D
:1049B00026709848E0800A98208138468C30069905
:1049C0002A46934B9847E5723C202654079E91480F
:1049D00070800A98B0800598029A105C40014024CB
:1049E0002040001DB0710597C837384606990E9FC4
:1049F0002A46874B98470695F571B87B012801D068
:104A0000042828D1039E3078400120400B9CA17ED1
:104A1000C9014018401C0C9988720C20C872059876
:104A200092303D463C35062729463A4622F0BCFFE7
:104A3000A07E31780A9A1040049A1140081830700C
:104A4000059E30465E3029463A460C9C22F0ACFF6B
:104A50003DE01220CFE00B94B86E0028059E0C9C20
:104A600010D0C11C0A78497809028A180AD0411D61
:104A70003046923022F070FEB86EC0782246E17A5D
:104A80000818E072F86E00280D9B11D0C11C0A783E
:104A9000497809028A180BD0411D3046CE3022F0E9
:104AA0005BFE0D9BF86EC078079AD1790818D0711B
:104AB000B87B0228069900D01946032800D10221AC
:104AC0000398007840010B9A10404018A0723146BC
:104AD00078313546B4352246E07A801DA080079BA8
:104AE000D879801D18804C488078400606D5A07A79
:104AF00020221043A07298791043987137464837A6
:104B0000384622F085FE3846294622F081FE354699
:104B1000503521F0D3F90146284622F049FE0E9B7C
:104B2000186FC17800790002411802D03B48484311
:104B300000E03B48F0623B48002702243761746183
:104B4000B061586E807C089D297803220240FC20C9
:104B5000084080182870586E807C002803D12A48AD
:104B60000078012817D124F097FA054624F098FA26
:104B7000014628461EF09BFD002809983BD1089A63
:104B800010781821014311701F48007801281FD1A7
:104B90000198056028E0022020F0F4F8002824D0D5
:104BA000044618F023FC00281FD1089A107804212D
:104BB000014311702079617909020818A17909046B
:104BC000E279120651180818001F019908600CE0DC
:104BD0000E98406E807C04990140022901D1019910
:104BE0000D602043032800D175640F98002801D080
:104BF0000D498180384611B0F0BDC046011000005B
:104C000091000000C47A0020486B0020F86B00205F
:104C1000A979020003020000E2690020409C000024
:104C200000204E00C1A50100AC0D0000F0B589B018
:104C300023F080FF0446FF2802D1002022F0B4F9BF
:104C4000E0B224F0E9FA04461B20000123182056A4
:104C50000028079306D57F2108401870204613F0DE
:104C6000C7F9079B2246883221462E31A06E006884
:104C70000068002802D00020E08311E04820085C92
:104C800000280DD1107800280AD1907B002807D188
:104C90009879002804D1207F012801D1608CEBE7AE
:104CA00008920091DD272B2006902189E08B04914A
:104CB0004E1C35186581204621F0A6F8002803D146
:104CC000C1480078012803D10020E0836681354681
:104CD0007E000698C0000590089F387801280BD107
:104CE0007A88A9B204981FF0A5F8002804D023F010
:104CF00005FE2DD07A8821E0B87B01280BD12089D0
:104D000061893A8A1FF096F8002804D023F0F6FD56
:104D10001ED03A8A12E0079B9879012818D1208981
:104D200061891A891FF086F8079B002810D06289D4
:104D30002189481C80B282420AD01A89824207D057
:104D4000501E608180B224F044FC401EE083079B2B
:104D5000A51905982618987900210291012814D1E7
:104D600018892189491C89B288420ED820461F46DD
:104D700024F067FD6A782A700220B871089FA17933
:104D800000200292134614F08DFF3079002804D0E1
:104D90000020E0832089401C608103963878012838
:104DA000069510D1788821894A1C92B290420AD186
:104DB000608124F00EFC618E4143F8880E18204675
:104DC00011F0B6F900E0668E0F21254620357F48A8
:104DD000E28B0592571C774302467A432668F068B7
:104DE000019210180790F06079483822825C002AFE
:104DF00006D0784A5278002A04D0774800220280F0
:104E0000608A0EE00491744A13885A1C72490A8021
:104E1000002B01D0608A03E0408F039AD2881018DB
:104E20000499784349010491192109011CF062FB9E
:104E3000401C6061A76105992970684B1968A279C7
:104E40003C256A4389180A6A3261079A101A086277
:104E5000B06008798880A08A1A68A67929467143CB
:104E60000792521811463231538E4000181850865E
:104E7000089A1278022A05D1009A1278534B5A43A5
:104E800010180880049AA3182027524A5278002A42
:104E9000089305D09988394210D13146079A1DE010
:104EA000029A042A03D1E12212018018088098880E
:104EB000384201D000200880069F2BE000213046B8
:104EC0001E4624F025FCB088B843B08043480268F1
:104ED000A179284648431018408E0E466943079230
:104EE00051180A6A3E4BD2180A6223689A60019FE1
:104EF000D21B1A617B22120182184A86069F3B78D8
:104F0000042B04D132315722920182180A8090B2C8
:104F100003990860618E3348027C437C1B029A1817
:104F2000837C1B04C07C0006C018801800684843BE
:104F300064211CF0DFFA254941432948401890308C
:104F40006E4307998919C862FF2006302018042192
:104F5000062222F09EF900280CD023F003FE41B275
:104F60001E4E3268A3796B43D318491001220240C8
:104F7000184609E0194E3068A1796943401808992C
:104F800089680922895600221DF088FC3978002999
:104F900003D1002022F008F83978A0793A7915F089
:104FA000B1FB204624F0A2FC3068A1794D434019A2
:104FB000216848600C4807210170204616F09EF9D0
:104FC000002009B0F0BDC0464E6C0020C4090000AE
:104FD0004875002054690020927A00203C7A002015
:104FE000C0FAFFFFE8D002003F6C0020F0B58BB0A4
:104FF0000446016CC26A1DF0A9FBE16F4A1C904295
:1050000001D9352591E1002813D0206C8A0087183A
:105010000837891C384623F0B0FCA168384622F0D6
:1050200094FD002807D0E66F711C884205D9C6257B
:105030007BE1532579E16C2577E123786625022B06
:1050400000D272E1052B00D96FE10890216C0A684B
:10505000981E4342434101252A405A4080200A902D
:1050600022500898E06720463A460B4613F080F835
:1050700020784000001F294681400A982150216C69
:1050800020460A461EF0AEFAE667E16C20460A9515
:105090002A4622F09CFD626EA06EE16CA36FE56F64
:1050A0000095A34DA847A26EE06E23F028FFA06EE6
:1050B000E26E23F024FF216F226B20461DF046FB99
:1050C000E56FA84201D93C252FE100280ED0606C85
:1050D000E26E216F24F060FA216F626B20461DF0B2
:1050E00035FBE56FA84203D965251EE1C3251CE108
:1050F000074600280ED0A06C216FA26E24F04CFA57
:10510000E16EE26820461DF021FBE56FAF4203D956
:105110005C250AE1562508E126468036A26EE16E3E
:10512000206F24F039FAE26C206D216FA36FE56FD8
:10513000009500F085FFE06F421C09963260656DB6
:105140000026277823F0ABFE09DA616C284623F0AD
:1051500045FB0998026890002D18761CF1E7A56DB3
:10516000002623F09CFE06DAA16C284623F036FBCD
:1051700023F0D2FBF5E7E56D002623F090FE06DA7A
:10518000E16C284623F02AFB23F0C6FBF5E7216CEF
:1051900008688007C20F089840010290401C0190E7
:1051A000002507952B460A9E02988642E8B26AD8E7
:1051B0000490069308920198801BB84200D33846A9
:1051C000099A1060204632461CF0C4FC4119C8B24E
:1051D0007B1E01252A469A409042059500DA00255B
:1051E0002B46BB4090420A9600DB48421818089AAA
:1051F0005049895C9600504A9219079F7B00D2184B
:10520000525D920051180006800D001F0422904349
:10521000081809990860204600F0F0FB680047492B
:1052200089190918049A895C039145498919081854
:10523000C75D079720780490811E42488019405C22
:105240000A9E36181420089A50433F4A1218052027
:1052500041435118069D4D5D216C720992008A5898
:105260001F233340DA40059B1A40039F7A40424394
:105270000A20089B5843354B18188018425D2B466E
:105280003D46049F90E7012810D107988000C01C7C
:10529000099E30602E4D2046A847012030602046F0
:1052A000A847022030602046A84727789925032F79
:1052B0003BD30020C0430890B91E01200A908840CB
:1052C000FE30099EC7B20A983060002F11D07A1CB8
:1052D0002046394605F0CAF80A9830602078801ECA
:1052E00008998140C94320463A4605F0BFF8781E28
:1052F000E8E72078801E089F39468140CA43002194
:1053000007912046134B98470A9830602078801EFA
:105310008740FA432046079F39460E4B98470A9A22
:105320003260204639460B4B984728460BB0F0BDFB
:105330004160000050D8020094D2020064D2020002
:10534000ACD202007CD20200F8C202001CCA0200E9
:10535000FD5900006DA400007FB51546D14A8218A2
:105360001D2A00D934E152007A44928852009744B1
:105370001D002F01C5005000BA0060009A00DE0039
:105380002F01E4002F012F01230115012F014500FA
:10539000A50078003E00EF000001440139012F0113
:1053A00028002F018E004D0133006A0018240129C6
:1053B00000D069E12878022800D965E1BA49C870AF
:1053C00061E11824012900D05EE1002D00D15BE1EC
:1053D0002878B549087056E11824012900D053E116
:1053E0002878012800D94FE1AF4908754BE1012920
:1053F00000D0DFE0287822F017FA44E118240129D0
:1054000000D041E12878042800D93DE1A6498874FC
:1054100039E11824012900D036E12878042800D980
:1054200032E1A1490871032800D02CE100244C711D
:1054300078E0102900D0BDE09B4854301022294666
:1054400022F0B2FA1FE11824012900D01CE1002D3E
:1054500000D119E12878012800D915E19249887016
:1054600011E11824012900D00EE12878022800D982
:105470000AE1002800D107E18B49C873022800D057
:105480000BE110200874012023F03EFCFBE0002912
:1054900000D08FE023F0C8FD002800D1E0E0824872
:1054A0000121C174EFE01824012900D0ECE0287834
:1054B000012800D9E8E07C490872E4E0072979D1A5
:1054C000691C01AE0622304622F086FA29780024B3
:1054D000009403AA3046234623F0EBF9002800D1BC
:1054E000A7E03424D0E01824012900D0CCE02878AB
:1054F000012800D9C8E06C49C871C4E0182401290A
:1055000000D0C1E02878012800D9BDE06649012813
:1055100003D10A79032A00D184E04871002800D021
:10552000B1E000248C71204623F054F8ACE001294E
:1055300040D128785C494873A5E000293AD123F08E
:1055400073FD002800D192E05748012181739AE051
:10555000554E707A1824002800D095E0602978D143
:10556000002D76D051486022294622F01DFA0120F4
:1055700074E01824012900D086E02878012800D999
:1055800082E049494872002400287DD001208872B9
:1055900046484749602222F007FA75E0012909D1FF
:1055A00041494A7C287848740024002A6CD101289B
:1055B00063D069E0182467E01824012964D13A48CF
:1055C000C27B2978022A2FD110295DD110212EE02B
:1055D00002240E2858D8022956D129881BF0CAFD6A
:1055E000044651E0002401294ED1287801284BD8E7
:1055F0002D49C87222F0E6FF46E01824012943D164
:105600002878012840D8284908733CE0182401294B
:105610003AD12878012837D82349012830D14A794E
:10562000002A2DD102242FE0CA1F0A2A2CD201748D
:1056300029E01D4D287B002804D123F0F5FC00282B
:1056400002D0287B012822D103A8007808F068FB4B
:105650000FE0012918D1002D16D02878B07212E081
:105660000EF082FE044650201FF0C0FE0CE020F039
:1056700029FB044650201FF0B9FE19F0D5F803E0CD
:10568000887122F0A7FF0024204604B070BD686A2C
:1056900003A9097801224254F6E70024204623F0AA
:1056A00033FBF1E700FCFFFFE87200204C730020A1
:1056B00038C40200F0B58BB00C4623F023F8054641
:1056C0002046294624F0C2F8002D01D00020A86011
:1056D000012660003CD5B507681C23F02DFE02D1E1
:1056E00024F0D0F8B4432846403023F025FE03D1FF
:1056F00024F0C4F8402084432846203023F01CFEC8
:1057000003D124F0BDF820208443281D23F014FE8B
:1057100003D124F0BBF804208443A81C23F00CFE22
:1057200003D124F0B4F8022084432846083023F043
:1057300003FE03D124F0A7F8082084432846103044
:1057400023F0FAFD03D124F09CF810208443AC43ED
:10575000E00234D53705B81C23F0EEFD03D123F069
:1057600006FF02208443781C23F0E6FD02D123F0DB
:10577000F2FEB4433846083023F0DEFD03D123F0B7
:1057800002FF08208443381D23F0D6FD16D10320E4
:1057900023F07CFF00280FD0024688301546943550
:1057A00001680A91526AC38C018DC06B009101900F
:1057B00028460A9923F0ADFB04208443BC432046CD
:1057C00023F046FD044622F09DFF0546200403D544
:1057D00023F06AFDF0038443600328D5002D10D028
:1057E0002888402819D0310288420DD080281CD149
:1057F00077480078082801D023F0FEFF24F030F825
:1058000013E023F0F9FF10E0714800780E2801D072
:1058100023F0F2FF24F02EF807E06D480078072807
:1058200001D023F0E9FF23F01FFDB00484436001A1
:1058300003D523F031FDB0068443200703D524F0BF
:1058400036F808208443E00612D562480890FF200D
:10585000002100910191029103910491059106911B
:10586000079002200A460B4608F058FE1020844399
:10587000A00603D524F01DF820208443200303D57F
:1058800023F0E9FFF0048443A00303D524F008F8D3
:1058900070048443200103D523F056FCF0068443B2
:1058A000E00003D523F0D5FF30078443E0030AD599
:1058B00023F0D6FC012802D123F07EFC01E023F086
:1058C000B7FC30048443A00003D523F0C3FF700766
:1058D0008443600703D523F0E2FF042084432006BD
:1058E00003D523F0E2FF80208443A00703D523F0F3
:1058F000D5FF0220844320020CD5354800780528C6
:1059000004D0112804D123F077FC01E023F0B3FF89
:10591000F0058443204623F0C5FF0446800416D5D5
:1059200023F02AFC2C4822F00DFE2C4908601BF0C5
:10593000A1FC002804D02A480268032001469047B1
:1059400028481CF073FF07F08BFF7003844360024C
:1059500003D505F09BFDB0058443A00503D522F0D7
:10596000F9FA70028443204D600402D4681C04409C
:1059700005E0812019F0B4FA112080028443E00789
:1059800005D01A480068002800D080472C40E00469
:105990001BD5174D28680D3022F0EDF8002804D1F2
:1059A0002868C11D0D3018F0A9F823F065FC1148D6
:1059B000007811494A68350329461BF01BF9002875
:1059C00002D08E2019F08CFAAC4320460BB0F0BD0B
:1059D0003F6C0020FFFF0000FFF90000FC6B00207F
:1059E000247A0020686B0020FEFBFFFF046C00207F
:1059F000F86B0020206C0020486B0020F0B589B0C7
:105A0000044680202158C8080D460391E26F511CBE
:105A10004143E06DC9B28F00C019616F636C06AE7F
:105A20000BC6A807060F05A88159206EA36F009228
:105A3000BB4D0A46A847606E23F052FA05A880596C
:105A4000A16CA36FE26F0092B64D0A46A847E06EC4
:105A5000216FA26C636E06920791089305A989597C
:105A6000E26DD2190497236EE56C069207930895B0
:105A700005AA23F057FAAA4DA847606EE16EE26CC2
:105A800006AB07C305A88059E26F521C22F0A6FEA0
:105A9000E06E216F06900791089005A88059216E4D
:105AA00023F002FA9F4DA847206FA16E0690079041
:105AB000089105A88059A16DC919226E636E06ADC3
:105AC0000EC505A98959A26CE36C656F069307950D
:105AD000089205AA23F026FA914DA847606F216E1F
